:100000000C9471020C948E020C948E020C948E024D
:100010000C948E020C948E020C948E020C948E0220
:100020000C948E020C948E020C9490230C946424F5
:100030000C94181A0C948E020C948E020C948E025E
:100040000C948E020C948E020C948E020C948E02F0
:100050000C948E020C94631A0C948E020C948E02F3
:100060000C948E020C948E020C948E020C948E02D0
:100070000C948E020C948E020C948E020C948E02C0
:100080000C948E020C948E020C948E020C948E02B0
:100090000C948E020C948E020C948E020C948E02A0
:1000A0000C948E020C948E020C948E0235002B0060
:1000B0000154E100500100001E00140004001D0066
:1000C0004F0107551F001A0016001B00E0002B000F
:1000D0002000080007000600E2002C0021001500A7
:1000E00009001900E3000F55220017000A0005005F
:1000F000BD0006082900015300002A00BE001908AF
:100100003100025300002B00AA002F0023001C0026
:100110000B001100A9003000240018000D00100091
:1001200050004B0025000C000E0036004F00280048
:10013000260012000F00370052002A00270013008B
:100140003300380051004E002E002D003400E50031
:10015000E4000000010001000100010001000000B6
:100160003A00BE5CC35CCE5C010001003B00BD5C9C
:10017000C45CCF5C010001003C00BB5CC95CD55C89
:10018000010001003D00BC5CCA5C145C0100010080
:100190003E00000000000000010001003F000100DF
:1001A000000001000100010040000100000001000A
:1001B00001000100410000000000000001000100FA
:1001C000420059005C005F006200010043005A00D9
:1001D0005D0060006300010044005B005E006100A0
:1001E000580001004500540055005600570001001A
:1001F0006700010001000100010000000100010092
:100200000100010001000000680000000000000083
:10021000010001006B00000000000000010001006F
:100220006C00000000000000010001006D000000F3
:1002300000000000010001006E000000000000004E
:1002400001000100000001000000010001000100A8
:100250000000010000000353010001006F00F400E2
:10026000FB000000010001007000F400F20000003B
:10027000000001007100F900F000F100FA00010037
:100280007200F500F3000000000001007300F500AB
:10029000FC00000000000100000000000000010060
:1002A0000100000001000100010001000100000048
:1002B0000000B5000000BB00010001000000B60016
:1002C0000000BC00010001000000B7000000AE000B
:1002D000010001000000B4000000AD0001000100B9
:1002E0000000B9000000A8000100010000000100AA
:1002F00000000100010001000000010000000100F9
:1003000001000100000001000100000001000100E7
:1003100000000100010000000100010000000100D8
:1003200001000100010001000000010001000000C7
:1003300001000100000001000100000001000100B7
:100340000000000000000100010000000403300074
:10035000000016034500720067006F0044006F0044
:100360007800200045005A00000028035A0053007E
:100370004100200054006500630068006E006F00BB
:100380006C006F006700790020004C006100620083
:10039000730000000403090409023B00020100A0ED
:1003A000FA09040000010301010009211101000103
:1003B0002240000705810308000A09040100010327
:1003C00000000009211101000122BC000705820381
:1003D00020000A1201100100000008973274490140
:1003E000000102030105010902A10185020901A121
:1003F00000050919012905150025019505750181DB
:100400000295017503810105010930093115812526
:100410007F95027508810609381581257F9501753C
:10042000088106050C0A38021581257F950175089B
:100430008106C0C005010980A101850319012AB701
:1004400000150126B700950175108100C0050C0943
:1004500001A101850419012AA002150126A0029517
:100460000175108100C005010906A1018505050778
:1004700019E029E715002501950875018102050796
:10048000190029EF1500250195F075018102050875
:1004900019012905950575019102950175039101D1
:1004A000C005010906A101050719E029E715002586
:1004B00001950875018102950175088101050719EB
:1004C0000029FF150026FF00950675088100050824
:1004D0001901290595057501910295017503910191
:1004E000C00011241FBECFEFDAE0DEBFCDBF12E0A7
:1004F000A0E0B1E0E6E4F0E502C005900D92A03383
:10050000B107D9F723E0A0E3B2E001C01D92A13703
:10051000B207E1F70E94D0200C94B7270C9400009A
:100520008098889A8198899A84988C9A85988D9ACF
:1005300086988E9A87988F9A08952098289821985F
:10054000299822982A9823982B9852985A98539829
:100550005B983E9846980895CF93C82F873070F5E2
:100560008091060190910701892B89F564E670E07E
:1005700080E40E94020C9093070180930601892B6E
:10058000D1F464E670E082E10E945E0C9093070172
:1005900080930601892B79F481E090E001C0880FF7
:1005A000CA95EAF764E670E080950E945E0C90932D
:1005B000070180930601CF910C94B10C8A30B9F0F9
:1005C00040F4883071F0893079F0209A2898CF91E2
:1005D00008958C3091F070F08D30B9F73E9A4698BE
:1005E000F6CF219A2998F3CF229A2A98F0CF239A0E
:1005F0002B98EDCF529A5A98EACF539A5B98E7CF4F
:10060000CF93873050F58091060190910701C0E0AB
:10061000892B71F464E670E081E40E94020C9093EF
:10062000070180930601892B31F0C0E00E94B10CD4
:100630008C2FCF91089584E690E00E948D0C97FF57
:1006400005C09093070180930601EFCFC82FC09596
:100650001092070110920601E9CFCFB18FB18695B4
:1006600086958C73C3708C2BC82FC095E1CF0E94E8
:100670003D0490E090930701809306010E949D0243
:100680000C949002EF92FF920F931F93CF93DF93FE
:100690008091060190910701892B91F080913002A1
:1006A0008F5F8093300281110BC00E943D0490E067
:1006B0009093070180930601892B11F40E94D203C5
:1006C00009E313E0C0E0D0E087E0E82EEC0E8C2FC9
:1006D0000E94AC028E2D0E94AC028C2F0E9400035F
:1006E000F80191918F01F12C891721F031978083C6
:1006F000FF24F3948E2D0E940003F8019681891740
:1007000089F0868381E08F29D82B0E949D02CF5FDC
:10071000C730D1F68D2FDF91CF911F910F91FF90B0
:10072000EF90089580E0EFCF0E943D0490E0909319
:100730000701809306010E949D020E949002E7E457
:10074000F3E0119283E0E535F807D9F70895259A8B
:100750002D9A0895269A2E9A0895279A2F9A0895E9
:1007600056985E98089525982D98089526982E9865
:10077000089527982F9808950E94B0030E94B3030C
:100780000E94B6030C94B90390E090938900809383
:10079000880090938B0080938A0090938D008093C3
:1007A0008C0008950E94BC038FEF0E94C4030E9436
:1007B000A7032FEF80E792E0215080409040E1F7BF
:1007C00000C000000E94AA032FEF80E792E02150B2
:1007D00080409040E1F700C000000E94AD032FEF81
:1007E00080E792E0215080409040E1F700C0000097
:1007F0000E94B3032FEF80E792E0215080409040A9
:10080000E1F700C000000E94B6032FEF80E792E0FE
:10081000215080409040E1F700C000000E94B903E1
:100820000C94BC0389EA8093800089E08093810066
:1008300024982C983F988AB18F7C8AB96E98479AF1
:100840008BB180638BB9769A0E94961860933503BA
:1008500070933603809337039093380367702FEFBC
:10086000629FC001112495958795959587950E9463
:10087000C4030E94D2030C94CC0480E290E09093D5
:100880000701809306018091310281110EC00E9400
:10089000FC0B81E0809331022FEF83ED90E3215038
:1008A00080409040E1F700C0000064E670E080E422
:1008B0000E94020C9093070180930601892B09F096
:1008C0004EC064E670E080E00E945E0C90930701E9
:1008D00080930601892B09F042C064E670E080E055
:1008E0000E945E0C9093070180930601892BB9F555
:1008F00064E670E08FE30E945E0C909307018093A2
:100900000601892B61F50E94B10C64E670E080E479
:100910000E94020C9093070180930601892BF9F441
:1009200064E670E08CE00E945E0C90930701809377
:100930000601892BA1F464E670E080E00E945E0C61
:100940009093070180930601892B49F464E670E0D7
:100950008FE30E945E0C90930701809306010E9432
:10096000B10C809106010895109235031092360360
:10097000109237031092380384E08061809335032E
:10098000609135037091360380913703909138035D
:100990000E949A180C94A6180895CF936091D202E1
:1009A0007091D3028091D4029091D5020E941B18BD
:1009B000C82F0E94B0030E94B3030E94B6030E9496
:1009C000B903C23059F0C33071F0C13099F40E94BC
:1009D000A7030E94B603CF910C94B9030E94AA0307
:1009E0000E94B303F8CF0E94AD030E94B303CF91DE
:1009F0000C94B603CF910895CF93DF939C013A9561
:100A000021153F4168F5EC01CC27D170DC01AA2704
:100A1000B270AC01442754709C012227387094FFB7
:100A200011C080E1CD2B09F480E0AB2B09F080628E
:100A3000452B09F08064232B09F08068FB01DF91CE
:100A4000CF91099481E0CD2B09F480E0AB2B09F024
:100A50008260452B09F08460232B81F38860EECF00
:100A6000DF91CF910895CF93DF93EC01805E9109E0
:100A7000089720F06FE172E1209711F465E57FE0BF
:100A8000CE010E94FC048C2FDF91CF910C94550E67
:100A9000CF93DF93EC010E94EC0ECE01805E9109B2
:100AA000089720F066E272E1209711F46CE57FE090
:100AB000CE01DF91CF910C94FC04CF93DF93EC0136
:100AC0000E943305CE01DF91CF910C94480581E05F
:100AD000089581E008950C94690508950C946D05BE
:100AE0001F93CF93DF9300D000D00F92CDB7DEB726
:100AF00049835A836B833091600289819A813111D5
:100B00001DC06623B9F02223A9F00E94BB16182F3E
:100B1000682F89819A810E94641669817A81812F68
:100B20000F900F900F900F900F90DF91CF911F912A
:100B30000C9432060E949216182FEFCF0E94BB161B
:100B400069817A81EDCFFC01262F4081518162813C
:100B5000738184810C947005CF93DF93EC0160E086
:100B60000E94A305BE01DF91CF910C946E050E94F7
:100B70006818811102C00E9402190E943D090C945C
:100B800012040C942508282F2F7041F0822F90E03A
:100B90002A3010F44D9608950697089587E290E064
:100BA000089508950C94D10581E008950C94D4051E
:100BB000CF93C82F0E94D2058C2FCF910C94D605CD
:100BC00008950E9443120E94E0052FEF84E39CE009
:100BD000215080409040E1F700C000000C94871A3B
:100BE0000F931F93CF93DF93EC0161E00E94A30565
:100BF0008C01BE010E946B05882359F1BE01C8011A
:100C00000E94B409882329F1BE01C8010E945D0A2F
:100C10008823F9F0BE01C8010E94AF0A8823C9F0F9
:100C2000BE01C8010E94D20B882399F08A818823D3
:100C300039F001158CE5180751F00E3D1C4579F08F
:100C4000CE01DF91CF911F910F910C9467050E9407
:100C5000E10580E0DF91CF911F910F9108950E94EF
:100C60000219F7CF972F70E026E0929F600D711D5B
:100C70001124FB0194E5899FE00DF11D1124EE0F75
:100C8000FF1FE455FF4F859194910895CF93DF9313
:100C90000E9432060E944B07EC01811522E5920763
:100CA00008F047C0811531E5930708F0C1C0883EC0
:100CB000910530F5803E910508F099C0883A91057C
:100CC00088F4853A910508F08BC08130910509F4CC
:100CD0008EC0009709F48BC0049708F088C0D0E05C
:100CE000C0E085C08F3B9105D0F7C85AD0E0CC0F4B
:100CF000DD1FCD53DE4F0990D881C02DD46477C05D
:100D00008115904250F4C11581E0D80708F06FC0FA
:100D1000C03FD10520F3D0656AC0C11590E4D90762
:100D2000F0F2C11520E5D20708F065C0DF70D06A87
:100D30005EC0811536E5930718F5811545E59407E2
:100D400008F08EC0C11584E5D80708F084C09C2F38
:100D5000969596959E0123703327C115D34508F4C7
:100D60006CC0C1E0D0E002C0CC0FDD1F2A95E2F7D5
:100D700030E2939FC0011124C82BD92BDA6837C009
:100D8000C1158AE5D80778F4C11599E5D90708F0A7
:100D900071C0C11528E5D20708F4A1CFDC2FCC27FC
:100DA000C06FD06A24C0C1153BE5D30708F497CFC4
:100DB000C1154CE5D40708F46BC0CE0190568115DF
:100DC000904208F08CCF8D2F8F710E94E20790E047
:100DD000982F882788279F719C012C2BE90148C0F8
:100DE000C55AD0E0CF50DE4FC881D0E0D064CE01EC
:100DF000DF91CF910895CE01E4E096958795EA952D
:100E0000E1F783702C2F26952695237040E2249FCE
:100E100090011124382B8C2F8370C1E0D0E002C0E8
:100E2000CC0FDD1F8A95E2F7C22BD32BDC68DFCF16
:100E3000D82FCC27C16FD06ADACFC1E0D0E002C092
:100E4000CC0FDD1F2A95E2F720E2929FC00111240A
:100E5000C82BD92BEBCFDC2FCC27C46FD06AC7CFE0
:100E60000E94E207C82FD0E0DC2FCC27CC27DF710F
:100E7000D062BDCF8C2F8F700E94E20734E0D695F0
:100E8000C7953A95E1F7CF709C2FEC01D069AFCFB1
:100E9000DD27D066ACCF82389105B1F1B0F4813353
:100EA000910509F475C048F48932910509F469C0C7
:100EB0008A32910509F473C008958533910509F4C8
:100EC00059C08933910501F10895833E9105A9F137
:100ED00038F4803E9105F9F0823E910549F108957C
:100EE000863E9105A9F1873E9105C9F1843E9105A1
:100EF00019F520915F0321FF1FC080915E0384FDDF
:100F000014C087EE90E0089520915E032370A1F055
:100F100080EE90E0089520915E0320FD47C030915F
:100F20005F0330FF09C024FF44C090E080E004C0AC
:100F300020915E0322FDF7CF089520915E0322FDEC
:100F40003BC030915F0330FDE3CF24FFF5CFEDCF01
:100F500020915E0323FFF0CF24FDE7CFD2CF209175
:100F60005E0323FD2CC030915F0331FFEECF84EE92
:100F700090E0089520915E0325FFDECF89E290E0A6
:100F8000089520915E0325FFD7CF85E390E0089573
:100F900020915E0326FFD0CF8AE290E00895209151
:100FA0005E0326FFC9CF81E390E0089589E390E0D6
:100FB000089583EE90E0089582EE90E0089586EE25
:100FC00090E0089590915E0392FF06C0282F28714B
:100FD0002830F9F4877F846093FF06C0282F28719A
:100FE0002831F1F4877E846120915F0320FF06C0E1
:100FF000382F38713830D9F4877F816021FF06C0DF
:10100000282F28712831D1F4877E816194FD877E55
:101010000895282F24712430F9F68B7F8860DCCF67
:10102000282F2471243101F78B7E8861DDCF382F82
:101030003171313019F78E7F8860E0CF282F217110
:10104000213121F78E7E8861E1CF0C94CD04E82F09
:10105000F0E0E95BFC4F8081089508950E9437031A
:10106000E9E3F3E0A7E4B3E011921D9283E0E734F3
:10107000F807D1F78EE00E9452080C94B705CF9381
:1010800089E393E00E944203C82F282F4EE067E4D3
:1010900073E089E393E00E94DB080E94C1058C2F76
:1010A000CF910895CF93C82F90E00E94442680935B
:1010B000360290933702282FFC019BEF8E2F821B64
:1010C0008C1710F0CF9108959193F8CFEF92FF9283
:1010D0000F931F93CF93DF93A62F10923502309179
:1010E0003602E32FF091370220E0E62EF12CBBEF21
:1010F0000BEF10E09E2F931B981748F020933502BA
:10110000DF91CF911F910F91FF90EF9008959191F2
:101110009B3F81F3492F50E0A91798F0B701641B5A
:10112000750BAB01052E000C660B770B4E3151058C
:101130006105710568F0AF0141505109EA01B883BA
:10114000D9CFE801C41BD50BAE014E0D5F1DEACF10
:1011500021E0D0CF0F931F93CF93DF9310923802EB
:101160005091360230913502DB018C01E52FF09170
:10117000370290E08E2F851B841748F0309335029C
:1011800090933802DF91CF911F910F9108956D9147
:10119000E80189918E01681751F060816B3F49F435
:1011A0002083BD0161507109EB01888331E03196E4
:1011B000E1CF91E0FCCFDF92EF92FF920F931F936C
:1011C000CF93DF93EC018B01E42ED22E0E94481ABC
:1011D0006091330270913402909334028093330211
:1011E0002091320230E0261B370B820F931F6BEFEA
:1011F00070E00E941626F82E80933202809135020C
:10120000882319F16F2D8E2D0E946608DD2069F06C
:101210002F2D4E2DB801CE01DF91CF911F910F914F
:10122000FF90EF90DF900C94AA08809135028823FC
:1012300079F3809138028111EBCFDF91CF911F912B
:101240000F91FF90EF90DF900895D110E1CFF1CF93
:10125000CF93DF93EC0197FF0CC0FB0182818823C1
:1012600041F00E945309CE019F770E9497090E9486
:101270007F0981E0DF91CF9108958CE090E00E949A
:101280006F2790E0B0E0A0E0809355039093560361
:10129000A0935703B09358030895609155038CE0D1
:1012A00090E00C9483270E947617809359030E9444
:1012B000891780915503813089F0882359F0823055
:1012C00091F08430B9F08FE39CE90197F1F700C009
:1012D0000000089582EE0E94550EF5CF88E193E05C
:1012E0000E945D05F0CF82EE0E94550E87E50E94B8
:1012F000420FE9CF86EE0E94420F88E1F8CF80913D
:101300005503813071F0882341F0823031F0843010
:1013100061F0809159030C94861782EE0E94EC0EC6
:10132000F8CF8CE20E94420FF4CF88E2FBCF0F93FC
:101330001F93CF93DF938C01CCE0D0E0C8010C2E3B
:1013400002C0969587950A94E2F78F700E94C305B4
:101350000E945D052497CC3F8FEFD80779F7DF9186
:10136000CF911F910F9108950F931F93CF93DF9308
:10137000EC018B01FB018281882361F00E947617CA
:10138000CE01815E9C458530910520F48093550304
:101390000E944D09B801CE01DF91CF911F910F91AD
:1013A0000C942809AF92BF92CF92DF92EF92FF92F6
:1013B0000F931F93CF93DF937C015B01C42FD22F38
:1013C000FC0182818823F9F040933B020E94481A75
:1013D00090933A028093390280E28C0F883008F0B3
:1013E00061C0C77081E001C0880FCA95EAF7DF913C
:1013F000CF911F910F91FF90EF90DF90CF90BF9012
:10140000AF900C94550F10913B02141340C0809183
:10141000390290913A020E94541A6C01B701C50139
:101420000E94B914C816D90690F5C0E2CD0F1D1759
:10143000B9F080E2810F883040F4177081E001C07C
:10144000880F1A95EAF70E945C0FC83048F481E0D3
:101450009D2F977001C0880F9A95EAF70E94550F4B
:10146000802F0E94420FC830E8F4D77081E001C09D
:10147000880FDA95EAF7DF91CF911F910F91FF90D6
:10148000EF90DF90CF90BF90AF900C945C0F80E214
:101490008C0F883038F4C77081E001C0880FCA957E
:1014A000EAF7E9CFDF91CF911F910F91FF90EF9075
:1014B000DF90CF90BF90AF9008950F939C01CB0128
:1014C000233F4CE5340759F1A8F4283DFCE53F07DC
:1014D00001F1293D4CE53407D1F1273D3C4591F41C
:1014E00006E221EE41EE67ED7CE50E94D20980E044
:1014F0000F910895253FFCE53F07E9F0B0F0263F46
:101500003C45F9F0FC018281882339F110923B02BD
:10151000EFCF07E225EE45EE68ED7CE5E6CF06E28B
:1015200021EE40EE63EF7CE5E0CF07E225EE44EEEE
:1015300064EF7CE5DACF06E221EE42EE65EF7CE572
:10154000D4CF07E225EE46EE66EF7CE5CECF08E28B
:1015500021E045EE69ED7CE5C8CF81E0C9CFCF93AE
:10156000DF93EC01FB018281882309F419C1C230A9
:10157000FCE5DF07C0F1C6319CE5D90730F09E01DC
:101580002A5F3C452930310570F50E947B18909305
:101590005F0380935E03C031ECE5DE0709F4CFC042
:1015A00008F05BC0C8308CE5D80709F4B6C088F5F0
:1015B000C430ECE5DE0709F4A8C0C0F4C2308CE505
:1015C000D80709F49CC080915E038260C330DC457B
:1015D00009F498C080915E0390915F030E9489187E
:1015E0000E94431280E0DF91CF91089580915E03C5
:1015F0008061C630ECE5DE0709F484C080915E03AB
:101600008860C730DC4508F47DC080915E0380624D
:1016100079C0CC308CE5D80709F489C070F480918A
:101620005E038C60CA30ECE5DE0709F46BC008F499
:1016300078C080915E038E7F65C0CE308CE5D80780
:1016400009F479C080915E038B7FCF30DC4508F4CC
:1016500059C080915E038F7E55C0CB3FECE5DE071D
:1016600009F457C030F5C3318CE5D80709F46FC0D1
:1016700078F4C131ECE5DE0709F465C0C231DC4520
:1016800009F0A8CF0E94431280915E038F773AC081
:10169000C5318CE5D80709F462C008F476C08091A2
:1016A0005F038160CA3FDC4509F094CF80935F03FC
:1016B00091CFCF3FFCE5DF0709F44DC088F480915E
:1016C0005F038D7FCD3F9CE5D90781F380915F0358
:1016D0008E7FCE3FDC4550F380915F038360E6CF81
:1016E000C130FDE5DF0709F459C008F444C080E0CB
:1016F000C230DD4509F06ECF0E9404196BCF809196
:101700005E03816080935E0365CF80915E03846099
:10171000F9CF80915F038260C9CF80915E038064BE
:10172000F1CF0E94431280915E038068EBCF8091DD
:101730005E038D7FE7CF80915E03877FE3CF80914B
:101740005E038F7DDFCF80915E038F7BDBCF809147
:101750005E03837FD7CF80915F038C7FA7CF80917B
:101760005E0382FB992790F921E0922790FB82F992
:1017700090FB83F9C7CF80915F03982F909591706C
:101780008E7F892B90FB81F991CF0E94431290911B
:101790005E03892F97FB87F98058B4CF81E0ACCFE7
:1017A00081E021CFCF93DF93EB0186319C4511F58A
:1017B0000E9476179A81992399F08A7A91E009F428
:1017C00090E090933C02811109C089E20E942B179E
:1017D0000E94B81780E0DF91CF91089585E3F6CF9E
:1017E00080913C02811104C089E20E943217F0CF3F
:1017F00085E3FBCF81E0EFCF1092B9008CE08093BE
:10180000B8000895EF92FF920F931F93CF93DF9349
:10181000182FEB011092BC0084EA8093BC000E9458
:10182000481A7C018091BC0087FF27C08091B900D5
:10183000887F883029F08091B900887F8031D9F580
:101840001093BB0084E88093BC000E94481A8C016E
:101850008091BC0087FF24C02091B900287F90E0D0
:1018600080E02831B1F081E090E0203411F490E084
:1018700080E09195819591090CC0CF3FDC0791F2F2
:101880000E94481A8E199F098C179D0758F28EEFF7
:101890009FEFDF91CF911F910F91FF90EF900895EF
:1018A000CF3FDC07A9F20E94481A801B910B8C17CE
:1018B0009D0770F2ECCF8FEF9FEFEBCF0F931F934D
:1018C000CF93DF93EB018093BB0084E88093BC004F
:1018D0000E94481A8C018091BC0087FF11C02091A2
:1018E000B900287F81E090E0283211F490E080E098
:1018F000919581959109DF91CF911F910F91089555
:10190000CF3FDC0741F30E94481A801B910B8C17D4
:101910009D0708F38EEF9FEFEECF0F931F93CF93AA
:10192000DF93EC0184E88093BC000E94481A8C018C
:101930008091BC0087FF08C08091BB0090E0DF91E0
:10194000CF911F910F910895CF3FDC0789F30E943B
:10195000481A801B910B8C179D0750F38EEF9FEF59
:10196000EECF84E98093BC00089590934202809367
:1019700041020895E0914102F0914202309721F036
:101980000190F081E02D099480E00895E0914102FA
:10199000F0914202309799F020911A01222359F0D8
:1019A00020915E0327FF07C0DC012C9111962C9338
:1019B000119725E02C930280F381E02D099408957E
:1019C000E0914102F0914202309739F022E0DC01CF
:1019D0002C930480F581E02D0994089520913F0215
:1019E000309140022817390771F09093400280939C
:1019F0003F02E0914102F0914202309721F00680CF
:101A0000F781E02D0994089520913D0230913E0226
:101A10002817390771F090933E0280933D02E091C0
:101A20004102F0914202309721F00084F185E02DCF
:101A30000994089585B7806885BF85B7806885BF9C
:101A40000895089508950C94210D08950C94250D82
:101A50000E941A0D0E94220D0C94230D81E008951E
:101A60000C942E0D0E943F1A0E942E080E94B91A53
:101A70000C94260DBF92CF92DF92EF92FF920F93BC
:101A80001F93CF93DF93CDB7DEB72A970FB6F894A5
:101A9000DEBF0FBECDBF0E943F080E94300D8823DD
:101AA00009F45EC084E4C82E82E0D82E10E000E085
:101AB000B02E802F0E942708E82EF601F1906F01CA
:101AC000F81609F447C08091000381FD0E942D089B
:101AD0009F2D9E2580E0FF24F394292F2F21B1F123
:101AE0008E83BF82EF2081E009F480E088870E9426
:101AF000481A8160782F9A8789874E815F8168852F
:101B00008A850E94090EF801EC5BFD4F8081F82662
:101B1000F0820E94641C0E94BA0C909143028917C3
:101B200081F10E94BA0C809343022A960FB6F89472
:101B3000DEBF0FBECDBFDF91CF911F910F91FF9000
:101B4000EF90DF90CF90BF900C94D8058F5FFF0C83
:101B5000863019F60F5F1F4F0E30110509F0A8CF20
:101B60008FEF89838A831B820E94481A8160782FB5
:101B70009D838C8349815A816B818D810E94090EDE
:101B8000C8CF2A960FB6F894DEBF0FBECDBFDF9147
:101B9000CF911F910F91FF90EF90DF90CF90BF906A
:101BA0000895CF93DF93DC018C91682F70E021E0E2
:101BB00030E001C0220F8A95EAF711964C911197F7
:101BC00050E0EA01CE5ADD4F988112968C9112971F
:101BD0008823C9F0809162028823C1F086E0849F47
:101BE000F001859FF00D1124E60FF71FEE0FFF1F88
:101BF000E55EFE4F408151814D935C93292B2883F4
:101C0000DF91CF910895892F8223E6CF2095292354
:101C1000F6CFCF93DF93CDB7DEB72B970FB6F894FF
:101C2000DEBF0FBECDBF4F83588769877A878B870A
:101C30008A859B85892B21F0CA0189238F3FE1F496
:101C40001E821D8285E0FE013796DE01119601900D
:101C50000D928A95E1F749815A816B817C818D8152
:101C60009E810E94BC142B960FB6F894DEBF0FBE67
:101C7000CDBFDF91CF910895CE0107960E94D10D7F
:101C8000DFCFFC01808191810E94FD1692959F70AB
:101C9000963051F4863F41F08091620291E08927AD
:101CA00080936202909361020895CF93C82F882396
:101CB00009F490C08238C1F40E94BA0C81FD8AC038
:101CC00089E30E942B170E94B8172FEF81EE94E052
:101CD000215080409040E1F700C0000089E30E945D
:101CE0003217CF910C94B8178338A1F40E94BA0C24
:101CF00080FD70C083E50E942B170E94B8172FEF5C
:101D000081EE94E0215080409040E1F700C0000057
:101D100083E5E5CF8438A1F40E94BA0C82FD5AC055
:101D200087E40E942B170E94B8172FEF81EE94E0F2
:101D3000215080409040E1F700C0000087E4CFCF01
:101D40008CEF8C0F813AB8F48C2F0E94CB1E81113E
:101D500041C06C2F80910801909109010E941D19CA
:101D6000882329F08C2F0E9432170E94B8178C2FDD
:101D70000E942B17B6CF80E28C0F883048F4C770D2
:101D800081E001C0880FCA95EAF70E947917A9CFB0
:101D9000EBE5EC0FE33040F4F0E0EE5DFD4F8081C9
:101DA00090E0CF910C94EE0CE8E5EC0FE73150F4A5
:101DB000F0E0EE0FFF1FEC50FE4F80819181CF913C
:101DC0000C94040DC03F30F08C2F0E945E1BCF910D
:101DD0000C94491CCF910895882309F452C082388D
:101DE00071F40E94BA0C81FF4CC089E30E942B174A
:101DF0000E94B81789E30E9432170C94B8178338F1
:101E000059F40E94BA0C80FF3CC083E50E942B1756
:101E10000E94B81783E5EFCF843859F40E94BA0CBA
:101E200082FF2FC087E40E942B170E94B81787E417
:101E3000E2CF9CEF980F913AF0F290E2980F983031
:101E400050F4877091E001C0990F8A95EAF7892FC5
:101E50000E947F17D2CF9BE5980F933020F490E03B
:101E600080E00C94EE0C98E5980F973120F490E008
:101E700080E00C94040D803F20F00E94C61B0C945F
:101E8000491C0895CF93C82F0E94550EC93349F4B9
:101E90002FEF87EE93E0215080409040E1F700C0A3
:101EA00000008C2FCF910C94EC0E882321F00E941F
:101EB00079170C94B8170895882321F00E947F1792
:101EC0000C94B81708958F929F92AF92BF92CF92C1
:101ED000DF92EF92FF920F931F93CF93DF937C01DA
:101EE000C62F172FFC01058102950F70D281D111E9
:101EF0000E9499170E946F17D82E8823B1F0DD2316
:101F000009F1812F807F803441F090E29C0F98305E
:101F1000C8F0803611F4C63FA9F082E00E94031891
:101F20000E946F1791E0D82ED926C12EC2949FE04F
:101F3000C922FBE0FC15B0F1EC2DF0E0E754F84DC0
:101F40000C943E26D12CF1CF012F0F70812F807F72
:101F500011F00295007FDD23A9F0002359F080E203
:101F60008C0F883010F0C11109C0802F0E947917A2
:101F70000E94B8178C2F0E94550E14C0802F0E940B
:101F80008C17F6CF8C2F0E94EC0E002359F080E2C4
:101F90008C0F883010F0C11138C0802F0E947F173D
:101FA0000E94B8172C2D2850330B2430310520F413
:101FB0000E94BA0C0E94D805DD2339F0107F10363C
:101FC00011F4C63F11F00E946217DD2009F4EBC145
:101FD0000E94451780FDE7C1F70112820E943F175A
:101FE0000E94C815C7010E94F7110E943F17DF9198
:101FF000CF911F910F91FF90EF90DF90CF90BF9006
:10200000AF909F908F900C94E915802F0E949217AB
:10201000C7CF212F2F70B22E812F807F803219F0F1
:10202000B29480EFB822CC2339F0C13019F1DD230E
:1020300059F1002321F19ECFDD2381F0011106C06B
:102040000E949F178B290E94550FACCF0130C1F71A
:102050000E949F178B290E94A517A4CF011106C0CB
:102060000E94AE178B2D0E945C0F9CCF013009F4AB
:1020700099CFF6CFDD2329F0023008F093CF8B2DD6
:10208000E2CF01118FCFEECF002361F3C93349F4C2
:102090003FEF87EE93E0315080409040E1F700C081
:1020A00000008C2F0E94EC0E7DCF812F86958695A7
:1020B000837069F0813009F075CF8C2F912F937068
:1020C000D11102C090E080E00E94040D6BCF8C2FF4
:1020D000912F9370D11102C090E080E00E94EE0C2D
:1020E00061CF8C2FDD2329F00E945E1B0E94491CCA
:1020F00059CF0E94C61BFACF812F837009F043C0CD
:10210000D11150CF2C2F229526952770220F220F08
:102110006C2F6F70862E912CB12CA12C022E04C036
:10212000880C991CAA1CBB1C0A94D2F760E070E0D2
:10213000CB01C4FF0FC06FE070E080E090E004C00E
:10214000660F771F881F991F2A95D2F760957095A3
:1021500080959095212F26952695237068297929B9
:102160008A299B29223049F058F4213019F00E9425
:102170007A1518CF0E94681515CF0E948C1512CFC2
:102180000E9466150FCF8695DD2311F0812F817097
:10219000882309F407CF2C2F229526952770220F2C
:1021A000220F6C2F6F70862E912CB12CA12C022E39
:1021B00004C0880C991CAA1CBB1C0A94D2F760E0CE
:1021C00070E0CB01C4FF0FC06FE070E080E090E0F2
:1021D00004C0660F771F881F991F2A95D2F7609554
:1021E000709580959095212F2695269523706829C6
:1021F00079298A299B29223049F058F4213019F095
:102200000E943F16CFCE0E942D16CCCE0E945116B2
:10221000C9CE0E94A215C6CE012F0F70DD2329F072
:10222000802F0E94C8158C2F0ECF8C2F0E945C0F20
:10223000802F0E94E915B6CEC23F89F160F4C03FFD
:10224000D1F0C13F29F1DD2309F442C0011192CE42
:10225000812F8F7121C0C33F39F1C43FA1F7DD2326
:1022600069F1012F0F71802F0E94C81563E0802F44
:102270000E94EE1797CEDD2339F0011193CE812F06
:102280008F710E940C168ECE023008F08BCEF7CFE5
:10229000812F8F71DD2369F20E94C81583CE812FB3
:1022A0008F71DD23C9F3C5CFDD2329F0812F8F7115
:1022B0000E94B31577CE0E94AE1574CE81E00E94C5
:1022C0000318023008F46ECE82E00E9403186ACE32
:1022D000002359F0C93309F0E4CEEFEFF7EE23E025
:1022E000E150F0402040E1F7DACE812F8F71A1CF8D
:1022F000E0E1EC0FE73090F5F0E0EB53F84D0C9493
:102300003E26DD2309F44ECE8091620291E08927BA
:102310008093620247CED093620244CE81E08D2743
:10232000F7CFD1113FCE81E0F3CFD1113BCE109248
:10233000620238CEDD2319F00E94491733CE0E9485
:10234000551730CEDD2339F0809161028823E1F208
:102350001092610227CE0023B9F224CE809161024F
:102360000023A9F0882341F08091620291E089273F
:1023700080936202109261028C2FD111FCCD0E94D9
:10238000EC0E86E0F70111928A95E9F70BCE8823CF
:1023900009F408CED11106CE8091620291E089271E
:1023A00080936202D5CFDF91CF911F910F91FF9063
:1023B000EF90DF90CF90BF90AF909F908F90089557
:1023C0000F931F93CF93DF93EC01688179818A810A
:1023D0000E9407178C010E9463160E946515B801C0
:1023E000CE01DF91CF911F910F910C94630FCF938A
:1023F000DF93EC018B819C81892B29F08881998165
:1024000089238F3F59F4DF91CF910895CE010E9427
:10241000E011CE01DF91CF910C94AC05CE010E946A
:10242000F0058111F3CF0E946F17882361F38A8131
:10243000882349F382E0DF91CF910C94031888231D
:1024400021F00E948C170C94B8170895882321F06E
:102450000E9492170C94B81708950E9499170E9431
:102460009C170E94B8170E94701D0E94491C90E0A2
:1024700080E00E94EE0C90E080E00C94040D0E943D
:1024800039170C942D120E9489170C943F12E92FD2
:10249000E295EF70E250EE3070F4F0E0E453F84D66
:1024A0000C943E26803F19F020F4883E20F481E011
:1024B0000895843FE1F380E00895883EC0F3813FB2
:1024C000D1F7F5CF93FB882780F908950E94FD1678
:1024D0000C944712CF93DF9300D000D00F92CDB76A
:1024E000DEB70F900F900F900F900F90DF91CF916C
:1024F0000895CF93DF9300D000D000D0CDB7DEB7E2
:1025000026960FB6F894DEBF0FBECDBFDF91CF91F8
:1025100008951F93CF93DF93C091630216E08091DB
:1025200064028C1304C0DF91CF911F910895D0E015
:102530001C9FF0011D9FF00D1124EB59FD4F4081B0
:10254000518162817381848195810E9479122196E3
:10255000C770E5CF40919502509196026091970225
:10256000709198028091990290919A020C9479123C
:102570001F93CF93DF9380919A02807FA9F480917B
:102580009702882389F080916302C0916402609170
:10259000950270919602A0919802B0919902D62F5F
:1025A000D72316E0C81304C0DF91CF911F9108957F
:1025B00090E0109711F0DF3F19F401968770F2CF89
:1025C000189F9001199F300D1124F901EB59FD4F0F
:1025D00041814713F2CF40814613EFCF4281411131
:1025E000ECCF438154814A1B5B0B483C510528F7D3
:1025F00080919A028F70806180939A02F901E65966
:10260000FD4F80818F708061808385E992E00E9418
:10261000F711DF91CF911F910C948912AF92BF9265
:10262000CF92DF92EF92FF920F931F93CF93DF939E
:10263000CDB7DEB761970FB6F894DEBF0FBECDBF42
:102640008C0185E0F801DE011D9601900D928A95BE
:10265000E1F7F80140815181E28085E9C82E82E0EE
:10266000D82E60919802709199026115710509F454
:1026700061C19091950220919602892F82238F3F0C
:1026800009F458C1A380B480F0909702F501E61BCD
:10269000F70BFF2009F4FCC080919A02382F307F9D
:1026A000E83CF10508F0B2C0311179C0FE2C2513C9
:1026B00023C0941321C0E1101FC08F7080618093EC
:1026C0009A020E94AA12C6010E94F71180919A02F2
:1026D000F80185838F2D61960FB6F894DEBF0FBE8B
:1026E000CDBFDF91CF911F910F91FF90EF90DF90C1
:1026F000CF90BF90AF900895AB2829F0842F852309
:102700008F3F09F033C180E0F82FF170DF2E80FF9A
:102710003CC0809163022091640236E0821315C0B0
:102720004D875E878D859E850E94FD16292F2295F7
:102730002F702230F0F0243018F59F70F1F0F8017E
:102740009581907FD1F4D12C1EC090E0389FF0018C
:10275000399FF00D1124EB59FD4F6181651306C0BF
:102760006081641303C062816E110FC0019687708F
:10277000D5CF9F7011F0882331F3805E883018F335
:10278000C8010E94F711FD2CA5CFEE2009F4A2CFBD
:1027900080919A02816080939A02F12C9BCF25133D
:1027A00006C0941304C0F801EE2009F48DC04D87D3
:1027B0005E878D859E850E946612882319F1EE2022
:1027C00009F180919A02803270F020919502309147
:1027D000960238872F831986BB86AA868C87CE01FE
:1027E00007960E94F71186E0F801A5E9B2E0019092
:1027F0000D928A95E1F70E94B8120E94AA12FF2456
:10280000F39468CFC8010E94F711F9CF311113C0BA
:102810007A2DB98AA88A6E2D89890E946A1285E963
:1028200092E00E94F71186E0F60111928A95E9F78D
:102830000E94AA12B2CF25130FC094130DC0E1104D
:102840000BC0F8018583C8010E94F71186E0F601EC
:1028500011928A95E9F73ECF4D875E878D859E85DB
:102860000E946612882371F2EE2061F280919A0232
:10287000803208F4B8CF20919502309196023A83C5
:1028800029831B82BD82AC828E83CE010196A9CFA3
:10289000E83CF10508F041C0FE2CEE2009F4B2CF6F
:1028A00025132AC0941328C080919A0280FD1BC072
:1028B000982F907FC1F0F8018583903F31F0982FD9
:1028C000907F905F8F70892B8583C8010E94F711DC
:1028D00086E0F801A5E9B2E001900D928A95E1F752
:1028E0000E94AA12F7CE86E0F801A5E9B2E00190B5
:1028F0000D928A95E1F7EECE4D875E878D859E8598
:102900000E94661281116FCF80919A02816080933C
:102910009A02C8010E94F711DDCE7A2DB98AA88AE1
:102920006E2D89890E946A1286E0F60111928A95BD
:10293000E9F7D6CFEE2009F465CF4D875E878D8508
:102940009E850E946612F82E882309F45BCF86E0EC
:10295000F801A5E9B2E001900D928A95E1F785E9C9
:1029600092E00E94410E0E94B812BACF81E08E25FB
:10297000CBCE88EC90E008951F93CF93DF93CDB733
:10298000DEB72C970FB6F894DEBF0FBECDBF4F83D6
:10299000588769877A878B879C87CE0107960E9424
:1029A0000E13882369F08A859B85892B39F04F8126
:1029B0005885842F85238F3F09F071C016E05FC0D2
:1029C00086E0FE013796DE01119601900D928A9500
:1029D000E1F78A859B85892B89F38F8198858923E7
:1029E0008F3F61F32091640230E0C9010196877046
:1029F0009927409163024817190671F40E94431207
:102A0000109264021092630286E0E5E9F2E0DF01D1
:102A10001D928A95E9F7D2CF96E0929FD001939FBD
:102A2000B00D1124AB59BD4FFE01319601900D92AE
:102A30009A95E1F7809364020E948912BFCF819F2B
:102A4000C00111248B599D4F0E940E138823E9F079
:102A5000E09163021E9FF0011124EB59FD4F40816C
:102A6000518162817381848195810E947912809164
:102A7000630290E0019687709927809363028091AA
:102A80006302909164028913DACF2C960FB6F89402
:102A9000DEBF0FBECDBFDF91CF911F910895698535
:102AA0007A858B859C850E94791288CF08950C9435
:102AB00056150E9457156093D6027093D7028093E3
:102AC000D8029093D9020C942D1208950C945915A4
:102AD0000F931F930091D6021091D7022091D80234
:102AE0003091D902602B712B822B932B1F910F9168
:102AF0000C9459150F931F930091D6021091D70291
:102B00002091D8023091D90260237123822393232C
:102B10001F910F910C9459150F931F930091D6029A
:102B20001091D7022091D8023091D90260277127E5
:102B3000822793271F910F910C9459150C945615C9
:102B40000C949E150E94A0156093D2027093D3023C
:102B50008093D4029093D5020C942D1260E070E023
:102B6000CB010C94A2150F931F9341E050E060E05D
:102B700070E08A019B0104C0000F111F221F331F48
:102B80008A95D2F7C901B8011F910F910C94A21533
:102B90000F931F9341E050E060E070E004C0440FE9
:102BA000551F661F771F8A95D2F78091D2029091A8
:102BB000D302A091D402B091D5028A019B01082BC7
:102BC000192B2A2B3B2BC901B8011F910F910C9493
:102BD000A2150F931F9341E050E060E070E004C045
:102BE000440F551F661F771F8A95D2F7CB01BA0194
:102BF00060957095809590950091D2021091D302C6
:102C00002091D4023091D502602371238223932333
:102C10001F910F910C94A2150F931F9341E050E068
:102C200060E070E004C0440F551F661F771F8A954F
:102C3000D2F78091D2029091D302A091D402B091A8
:102C4000D5028A019B01082719272A273B27C9019A
:102C5000B8011F910F910C94A2150F931F9300912F
:102C6000D2021091D3022091D4023091D502602B70
:102C7000712B822B932B1F910F910C94A2150F9304
:102C80001F930091D2021091D3022091D40230916F
:102C9000D50260237123822393231F910F910C94FB
:102CA000A2150F931F930091D2021091D30220918D
:102CB000D4023091D50260277127822793271F9174
:102CC0000F910C94A2150895E92FEE0FE90FEE0F66
:102CD0008E0F982F977041E001C0440F9A95EAF744
:102CE00086958695869595E0899FF0011124E55695
:102CF000FD4F30E020E070E05191DF011197CB01F2
:102D0000022E02C0969587950A94E2F7817081950C
:102D10008527842385278C932F5F3F4F25303105EE
:102D200059F70895E92FEE0FE90FEE0F8E0F982F48
:102D3000977086958695869525E0829FF0011124EF
:102D4000E556FD4F50E040E080E0219130E0092E53
:102D500002C0369527950A94E2F721703327042E96
:102D600001C0220F0A94EAF7822B4F5F5F4F453074
:102D7000510559F70895BF92CF92DF92EF92FF92DB
:102D80000F931F93CF93DF938C01C090D202D0900A
:102D9000D302E090D402F090D5028091D6029091B7
:102DA000D702A091D802B091D902C82AD92AEA2A1A
:102DB000FB2ACFE1D0E0BC2ED701C6010C2E04C007
:102DC000B695A795979587950A94D2F780FD0EC082
:102DD000219788F7B12C8B2DDF91CF911F910F9107
:102DE000FF90EF90DF90CF90BF900895B8018C2FA7
:102DF0000E944606019761F3EECFCF93DF93EC017B
:102E00000E94BB16BE01DF91CF910C9446061F9322
:102E1000CF93DF93EB0190916002992331F0CB01C6
:102E2000DF91CF911F910C94FD16882379F0CB018F
:102E30000E94BB16182F682FCE010E946416BE0197
:102E4000812FDF91CF911F910C944606CB010E94F8
:102E50009216182FF4CF682F8091080190910901E4
:102E60000C949D19682F80910801909109010C9490
:102E7000A81980910801909109010C94B3198091CF
:102E8000DB0285958595859508958091DB02877095
:102E9000089582E08093DA0281E0809362020895CF
:102EA0001092DA021092620208958091DA02823062
:102EB00021F481E08093DA020895833011F40C94B8
:102EC000501708958091DA02823021F483E08093D4
:102ED000DA020895813011F40C94501708959091FE
:102EE000DB02977081E009F480E008958091FF0291
:102EF00008959091FF02892B8093FF020895809599
:102F00009091FF0298239093FF0208958093FF020F
:102F100008951092FF0208959091FE02892B8093EC
:102F2000FE02089580959091FE0298239093FE02F0
:102F300008951092FE0208951092FD020895809166
:102F4000DC02089508950C94A2179091DC02981762
:102F500021F08093DC020C94A31708958091DC0289
:102F6000882329F01092DC0280E00C94A3170895C6
:102F7000E0910801F09109018091FF028083E091C6
:102F80000801F091090180819091FE02892B8083D4
:102F9000E0910801F091090180819091FD02892B57
:102FA00080839091DC02992381F0E0910801F091F7
:102FB00009018081892B808380910801909109010A
:102FC0000E94091981110E94AE1780910801909109
:102FD00009010C94C60C08950C94EB1798E0899F96
:102FE00090011124622B6093DB020E94C81580912E
:102FF000DB028595859585950C94EC171092DB0284
:1030000080E00C94EC179091DB02809589238093EB
:10301000DB02282F277071F4282F082E000C330BA9
:103020009217130639F08595859585950E94E915C7
:103030000C94FE170895CF92DF92EF92FF926C01ED
:10304000EE24FF2420E0C114D104E104F10419F0BE
:10305000C701B60120E1C72ED82EE92EFF24C114E6
:10306000D104E104F10419F0285FC701B6016B0136
:103070007C0154E0F694E794D794C7945A95D1F71D
:10308000C114D104E104F10419F02C5FC701B601A9
:103090006B017C0142E0F694E794D794C7944A957B
:1030A000D1F7C114D104E104F10419F02E5FC70176
:1030B000B6019695879577956795672B682B692B51
:1030C00009F02F5F822FFF90EF90DF90CF9008954F
:1030D00090E080E00E947D2721E08C3E9E4F09F029
:1030E00020E0822F089582E090E00C946F2783E027
:1030F00090E00C946F27CF9384E090E00E946F27BC
:10310000C82F81E290E00E946F27982F8C2FCF91DB
:103110000895CF93C92F682F84E090E00E94832701
:103120006C2F81E290E0CF910C9483278FE090E0A8
:103130000C947727AB01BC018FE090E00C949527AD
:10314000AB01BC0183E190E00C94952760E070E056
:10315000CB010C94A0186CEE7EEF90E080E00E9412
:10316000A12760E082E090E00E94832760E083E096
:1031700090E00E9483271092D6021092D7021092FC
:10318000D8021092D90260E084E090E00E94832788
:1031900060E081E290E00E94832760E085E090E0BB
:1031A0000E94832760E086E090E00E9483276FEF13
:1031B00087E090E00E94832740E050E0BA0188E079
:1031C00090E00E94952760E08DE090E00E948327C8
:1031D00040E050E0BA0188E190E00E94952760E06D
:1031E00087E190E00E94832740E050E0BA018CE143
:1031F00090E00E94952760E080E290E00E948327A3
:103200000C94B4040C94AB18682F8EE090E00C94EE
:103210008327FC01329680911A01882321F0809146
:103220005E039EE187FF96E080E0915008F40895E8
:1032300021912223D1F38F5FF8CF662301F12091F2
:103240001A012223F1F020915E0327FF1AC0462FB6
:103250004695469546954E3190F4677021E030E0F2
:1032600002C0220F331F6A95E2F7840F911DFC0103
:10327000828190E02823392381E0232B69F480E0C8
:103280000895FC01329608962191261721F0E8173F
:10329000F907D1F7F4CF81E008959C01FC01329643
:1032A0009FEF80E04191461751F09F3F19F4411183
:1032B00001C0982F8F5F8630A9F79F3F09F40895CA
:1032C000290F311D97FD3A95F90162830895FC019C
:1032D000329608962191261303C0DF0111971C92A4
:1032E000E817F907B9F70895E62FE695E695E6950C
:1032F000EE3168F4E80FF92FF11D677021E030E03E
:1033000001C0220F6A95EAF78281822B8283089599
:10331000E62FE695E695E695EE3170F4E80FF92F85
:10332000F11D677021E030E001C0220F6A95EAF7D5
:103330002095828128232283089520911A01222337
:1033400029F020915E0327FD0C9474190C944D19FB
:1033500020911A01222329F020915E0327FD0C946D
:1033600088190C946719FC01329680911A01882300
:1033700051F080915E0387FF06C08EE1DF011D9250
:103380008A95E9F7089586E0F9CF08950C94C51958
:103390000E94C61980916403843049F110920103A0
:1033A00088E190E020E40FB6F894A895809360003F
:1033B0000FBE2093600080E00E94D8050E94C619CD
:1033C00083B7817F846083BF83B7816083BF789434
:1033D000889583B78E7F83BF0FB6F894A8958091A8
:1033E0006000886180936000109260000FBE0895B5
:1033F0000895CF930E9494030E943F080E94F819F9
:10340000C0E08C2F0E942708811105C0CF5FCE300D
:10341000C1F7CF91089581E0FCCF08950C940D1A67
:103420000E9443120E94BA0C0E94D8050C940E1AF6
:103430001F921FB61F9211248F939F93AF93BF9338
:1034400080910103811113C080915A0390915B0315
:10345000A0915C03B0915D034196A11DB11D8093C5
:103460005A0390935B03A0935C03B0935D03BF91F9
:10347000AF919F918F911F901FBE1F90189582E072
:1034800084BD93E095BD9AEF97BD80936E0008953B
:103490002FB7F89480915A0390915B03A0915C033D
:1034A000B0915D032FBF08959C014FB7F8948091B0
:1034B0005A0390915B03A0915C03B0915D034FBFF1
:1034C000821B930B089578941F921FB61F921124AC
:1034D0008F939F93AF93BF9380915A0390915B0317
:1034E000A0915C03B0915D030196A11DB11D809375
:1034F0005A0390935B03A0935C03B0935D03BF9169
:10350000AF919F918F911F901FBE1F901895F894B7
:1035100081E08093E00080E28093D800E9ECF0E065
:1035200010828FE19EE40197F1F700C000001DBA00
:10353000109268001CBC10BE1FBA10927A00109244
:103540006E0010926F001092710010927200108243
:10355000ECEBF0E0108214B817B81AB81DB810BA26
:10356000108215B818B81BB81EB811BA0C94003FD9
:1035700008950E946818811102C00E9402190E94D9
:103580007318809300030E947B1890935F038093CD
:103590005E030E947718682F70E090E080E00E9440
:1035A00066156091D2027091D3028091D4029091FD
:1035B000D5020C94A01580910A0380FF12C060917F
:1035C0000E0185E0689FB00111247595679575958A
:1035D000679560387105A8F561157105A1F1862F11
:1035E000089581FF09C060910E0185E0689FB001D8
:1035F000112475956795EDCF60910E0182FD0AC08B
:10360000809109038823D1F090910D0160910E0102
:10361000891728F085E0689FB0011124DACF869FD2
:10362000B001112485E0869F9001879F300D112401
:10363000692F70E0C9010E942A26CBCF65E070E0B7
:10364000CECF8FE7089581E0089580910A0380FF2F
:103650000CC060910B0170E0759567957595679545
:103660006115710549F1862F089581FF06C06091AB
:103670000B0170E075956795F3CF60910B0182FDAA
:103680000BC0909108039923A1F060910A018091E9
:103690000B01961738F0682F70E06038710500F361
:1036A0008FE70895899FC001112470E00E942A26A7
:1036B000F4CF61E070E0D7CF81E00895803F31F42E
:1036C0000E94DB1A819580930E030895813F19F4BF
:1036D0000E94DB1AF8CF823F31F40E94DB1A8195F9
:1036E00080930D030895833F19F40E94DB1AF8CFED
:1036F000893F29F40E94251B80930F0308958A3F78
:1037000021F40E94251B8195F7CF8B3F31F40E9455
:10371000251B81958093100308958C3F19F40E9416
:10372000251BF8CF843F31F480910C038160809396
:103730000C030895853F21F480910C038260F7CF3C
:10374000863F21F480910C038460F1CF873F21F400
:1037500080910C038860EBCF883F21F480910C03AB
:103760008061E5CF8D3F31F480910A0381608093C1
:103770000A0308958E3F21F480910A038260F7CFF7
:103780008F3FB9F780910A038460F1CF90910D03C8
:10379000803F59F480910E0387FF0DC010920E03F5
:1037A00091110BC01092090308C0813F81F48091F0
:1037B0000E0318169CF3992381F080910F039091CA
:1037C0001003892B09F064C0109208030895823F0A
:1037D00049F497FFF0CF10920D0380910E038111F1
:1037E000ECCFE0CF833F19F41916ACF3E4CF20916E
:1037F0000F03893F29F41216F4F610920F03DBCF62
:103800008A3F19F427FFD7CFF8CF209110038B3FC1
:1038100029F427FFD0CF10921003CDCF8C3F19F49D
:103820001216CCF3C8CF843F31F480910C038E7F05
:1038300080930C03C0CF853F21F480910C038D7FD2
:10384000F7CF863F21F480910C038B7FF1CF873F28
:1038500021F480910C03877FEBCF883F21F4809186
:103860000C038F7EE5CF8D3F31F480910A038E7F6C
:1038700080930A03A0CF8E3F21F480910A038D7FAD
:10388000F7CF8F3F09F097CF80910A038B7FF0CF5E
:1038900008950E94481A9C0190910D0380910E0397
:1038A000982B21F0309307032093060390910F0388
:1038B00080911003982B21F030930503209304038B
:1038C0008BE093E00C94E00CEF92FF920F931F9328
:1038D000CF93DF9300D000D000D0CDB7DEB786E025
:1038E000EBE0F3E0DE01119601900D928A95E1F78D
:1038F000E0900D03F0900E0300910F031091100360
:1039000010920D0310920E0310920F0310921003E9
:103910008E2D8F2991F080910603909107030E94CC
:10392000541AAC0190910903992309F43FC0809186
:103930000F018417150608F447C0802F812B91F0E2
:1039400080910403909105030E94541AAC01909158
:103950000803992309F477C080910C018417150698
:1039600008F47FC080910D0390910E03892B9091F4
:103970000F03892B90911003892B11F00E94491C91
:1039800086E0FE013196ABE0B3E001900D928A959E
:10399000E1F726960FB6F894DEBF0FBECDBFDF91DC
:1039A000CF911F910F91FF90EF9008952091030305
:1039B0008AE0289F900111242417350708F0BDCF15
:1039C0009F5F9093090302C09F3FD1F7EE2059F00B
:1039D0000E94DB1A9FEF1E140CF491E0899F802D4A
:1039E000112480930D03FF2059F00E94DB1A9FEFF2
:1039F0001F140CF491E0899F802D112480930E03F5
:103A000030910D03332309F498CF20910E03222324
:103A100009F493CF45EB3403C0011124992359F0E5
:103A200090930D0345EB240390011124332339F0C7
:103A300030930E0382CF81E080930D03F3CF81E0BA
:103A400080930E037ACF209102038AE0289F900191
:103A500011242417350708F085CF9F5F9093080342
:103A600002C09F3FD1F7002359F00E94251B9FEF12
:103A700010160CF491E0899F802D112480930F0380
:103A8000112359F00E94251B9FEF11160CF491E0B1
:103A9000899F802D11248093100330910F033323CD
:103AA00009F460CF20911003222309F45BCF45EB8A
:103AB0003403C0011124992359F090930F0345EB6F
:103AC000240390011124332339F0309310034ACF9B
:103AD00081E080930F03F3CF81E08093100342CF06
:103AE00086E0EBE0F3E0DF011D928A95E9F71092A2
:103AF00009031092080310920A030895833081F19C
:103B000028F4813059F08230D1F00895853009F4DD
:103B100049C0B8F1863009F456C008958091030376
:103B2000482F460F5527551F4F3F510524F4680F66
:103B30006093030308958FEF8093030308958091AA
:103B40000F01482F460F5527551F4F3F510524F4AD
:103B5000680F60930F0108958FEF80930F01089510
:103B600080910E01482F460F5527551F4F3F510595
:103B700024F4680F60930E0108958FEF80930E0177
:103B8000089580910D01482F460F5527551F4F3F2F
:103B9000510524F4680F60930D0108958FEF809311
:103BA0000D01089580910B01482F460F5527551F91
:103BB0004F3F510524F4680F60930B0108958FEF78
:103BC00080930B01089580910A01482F460F5527D5
:103BD000551F4F3F510524F4680F60930A01089563
:103BE0008FEF80930A010895833011F128F481301A
:103BF00049F0823091F00895853081F120F18630CE
:103C0000C1F1089580910303681720F4861B809307
:103C10000303089510920303089580910F0168171C
:103C200020F4861B80930F01089510920F010895D0
:103C300080910E01681720F4861B80930E01089571
:103C400010920E01089580910D01681720F4861BD3
:103C500080930D01089510920D01089580910B013C
:103C6000681720F4861B80930B01089510920B01B6
:103C7000089580910A01681720F4861B80930A0139
:103C8000089510920A0108950F931F9341E050E0A8
:103C900060E070E08A019B0104C0000F111F221F29
:103CA000331F8A95D2F7C901B8010E9466151F918A
:103CB0000F910C944312EBEFE80FEF3308F05AC06A
:103CC000F0E0E652F84D0C943E260E94021981E085
:103CD000089580910003807F8093000381E08093AA
:103CE000120308950E94E105F2CF90910003892FFD
:103CF0008E7F90FF81608093000380FDE8CF817FFD
:103D000080930003E4CF90910003892F8D7F91FF72
:103D100082608093000381FFDACF8091000381608D
:103D2000EFCF90910003892F8B7F92FF8460809367
:103D3000000382FDF2CFCBCF90910003892F877FC4
:103D400093FF88608093000383FDE7CFC0CF0E947C
:103D5000431290915E03892F97FB87F980588093D7
:103D60005E03B5CF80E00E94441EB1CF8953FBCFE4
:103D70008D51F9CF80E0089580E008950C94BC1E29
:103D80008E518A3030F4E82FF0E0EB5DFD4F8081FA
:103D9000089580E00895CF93C82F80911203813059
:103DA000E1F0882329F08230E9F11092120313C068
:103DB0000E947617813159F48C2F0E94BC1E81110C
:103DC00025C08C2F0E945B1E8170CF9108950E94A8
:103DD0007617823289F380E0F8CF0E94761781311E
:103DE00059F30E947617823239F38C2F0E94BE1E3F
:103DF00081110AC0C43199F060F4CB3029F0C03190
:103E000019F782E08093120381E0DECF81E090E039
:103E1000DBCFC93221F0C833B9F380E0D5CF10929F
:103E20001203FBCFC93219F188F4C43101F120F437
:103E3000C73081F181E0C9CF82EE8C0F8630D0F798
:103E40008C2F0E94C01E80931103F4CFCE3401F159
:103E500040F46AE0CB3471F7809111030E947E1D1B
:103E6000E9CFC13579F061E0C235B1F3E3CF80919C
:103E70001103882319F010921103DCCF81E08093A5
:103E80001203A3CF61E0809111030E94F41DD2CFF1
:103E90006AE0F9CF1092030384E180930F01C0938D
:103EA0000E018CE380930D0188E080930B0188E282
:103EB00080930A01BFCF809133030895CF93DF939E
:103EC00000D00F92CDB7DEB790916403943019F50E
:103ED00089837B836A8382E08093E9008FEF9091EE
:103EE000E800815095FD06C095ED9A95F1F7000028
:103EF0008111F5CF8091E80085FF0DC050E040E0D2
:103F000063E070E0CE0101960E9485218091E80077
:103F10008E778093E8000F900F900F90DF91CF91F4
:103F20000895BC0184E00C945E1FBC0183E00C94F6
:103F30005E1F9C0182E08093E9009FEF8091E80082
:103F4000915085FD06C085ED8A95F1F7000091112D
:103F5000F5CF8091E80085FF0CC050E040E066E0BE
:103F600070E0C9010E9485218091E8008E778093DE
:103F7000E8000895CF93DF93EC0180911A01882324
:103F8000B1F180915E0387FF32C060E282E08093EE
:103F9000E9008FEF9091E800815095FD06C095ED06
:103FA0009A95F1F700008111F5CF8091E80085FF27
:103FB0001BC080911A0170E050E040E0811104C004
:103FC00050E040E068E070E0CE010E9485218091E1
:103FD000E8008E778093E80080E2FE01A3E1B3E081
:103FE00001900D928A95E1F7DF91CF91089568E0F5
:103FF00081E0CDCF80916303811109C00E94152318
:104000000E9472238091E20084608093E200089510
:10401000109263030895089508950C94101A42E0D5
:1040200061EC81E00E94912242E261EC82E00C941A
:10403000912280916603833009F45FC030F48130AF
:10404000C1F1823009F49BC008958A3009F487C019
:104050008B3009F46DC0893009F04EC08091650342
:10406000813209F049C08091690390916A030297F7
:1040700008F042C08091E800877F8093E80080913B
:10408000E80082FF35C09091F3008091F200029722
:1040900029F48091F1008B7F813021F48091F1002F
:1040A000809333038091E8008B778093E8000C9431
:1040B000C52280916503813AF9F48091E800877FF9
:1040C0008093E8008091690390916A03892B61F4E1
:1040D00060E283E193E070E00E94D4218091E800E7
:1040E0008B778093E800089560E090E080E0F3CF64
:1040F000809164038111C3CF089580916503813A53
:10410000D9F78091690390916A03892BA9F780916F
:10411000E800877F8093E8008091E80080FFFCCF73
:1041200080911A018093F1008091E8008E77BDCFD5
:1041300080916503813201F78091690390916A0350
:10414000892BD1F68091E800877F8093E8000E9458
:10415000C5228091670380931A010C9443128091C9
:104160006503813249F68091E800877F8093E800FB
:104170000E94C52280916803809334030895809142
:104180006503813A09F0B8CF8091E800877F80937A
:10419000E8008091E80080FFFCCF80913403C2CF1B
:1041A00084B7877F84BF0FB6F894A895809160008C
:1041B000886180936000109260000FBE80E890E0FC
:1041C0000FB6F89480936100909361000FBE0E9437
:1041D000280D0E9415230E9472238091E2008460C2
:1041E0008093E20078940E94FB250E94320D80E1CA
:1041F00091E00E94B50C80916403853019F00E9413
:104200003A0DF9CF0E94C81980916203882399F36F
:104210000E94F919882379F30E946F21ECCF0C9446
:104220001121292F33272330310519F168F421306A
:10423000310509F44AC02230310509F44BC090E041
:1042400080E030E020E028C02132310579F12232CF
:104250003105A9F780E490E021EA34E061157105A9
:10426000D9F08CEB90E025EE33E061307105A1F0E0
:10427000E6CF99278130910599F0009741F082307F
:10428000910589F00397D9F6ECE4F3E002C0E4E984
:10429000F3E0849190E09F01FA0131832083089537
:1042A000EAE6F3E0F6CFE2E5F3E0F3CF89E090E071
:1042B0002AEA33E06115710579F389E090E023EC97
:1042C00033E06130710541F3BACF82E190E023ED34
:1042D00033E0E2CF8BE390E028E933E0DDCF80E10B
:1042E00089BD82E189BD09B400FEFDCF8091D8006F
:1042F0008F7D8093D8008091E00082608093E00001
:104300008091E00081FDFCCF0895AF92BF92CF92E3
:10431000DF92FF920F931F93CF93DF936C01EB011A
:104320008A010E94E422F82E811123C00115110593
:1043300039F0F80180819181C81BD90BC80ED91EB4
:10434000B12CA12C2097A9F08091E80085FD22C016
:104350008091E8008E778093E80001151105A1F0A7
:10436000F80180819181A80EB91EB182A08285E0FA
:10437000F82E8F2DDF91CF911F910F91FF90DF903D
:10438000CF90BF90AF9008950E94E4228823D1F28D
:10439000F82EEFCFF60181916F018093F100219704
:1043A000FFEFAF1ABF0ACECFFC0180916B03909153
:1043B0006C0386179707A0F06115710529F4909199
:1043C000E8009E779093E80090E06115710551F444
:1043D000911108C08091E80082FF34C080E0089508
:1043E000BC01F2CF809164038823C1F18530C1F113
:1043F0008091E80083FD30C08091E80082FDEACF23
:104400008091E80080FFE1CF8091F3002091F200DD
:10441000382F6115710519F02830310558F091E0F9
:104420002830310509F090E02091E8002E772093A4
:10443000E800CBCF81918093F100615071092F5F2B
:104440003F4FE7CF80916403882341F0853041F0EE
:104450008091E80083FFBECF81E0089582E0089557
:1044600083E00895FC0180916B0390916C038617A3
:104470009707A0F06115710529F48091E8008E7707
:104480008093E80090E06115710551F4911108C026
:104490008091E80082FF35C080E00895BC01F2CF32
:1044A000809164038823C9F18530C9F18091E800C7
:1044B00083FD31C08091E80082FDEACF8091E80061
:1044C00080FFE1CF8091F3002091F200382F611539
:1044D000710519F02830310558F091E02830310588
:1044E00009F090E08091E8008E778093E800CBCFD0
:1044F00084918093F1003196615071092F5F3F4F95
:10450000E6CF80916403882341F0853041F08091AB
:10451000E80083FFBDCF81E0089582E0089583E045
:104520000895982F973028F08F708093E90081E0EC
:1045300008959093E900242F762F50E0981731F0DA
:104540007091EC002091ED005091F00021FD02C02F
:104550009F5FE8CF3091EB003E7F3093EB003091CE
:10456000ED003D7F3093ED003091EB0031603093F2
:10457000EB007093EC002093ED005093F00020913D
:10458000EE0027FDE5CF80E008958091650387FF69
:1045900013C08091E80082FF06C08091E8008B770D
:1045A0008093E80004C0809164038111F2CF0895E4
:1045B000809164038823D9F38091E80080FFF8CFCD
:1045C0008091E8008E77ECCF2091E4003091E500F7
:1045D00095E6A9012091EC00822F817020FF06C092
:1045E0008091E80080FF06C080E008952091E800F7
:1045F00022FD1AC080916403882389F0853089F0F8
:104600008091EB0085FD0FC02091E4003091E50022
:1046100042175307F9F29150E1F684E0089582E0E1
:10462000089583E0089581E008950E9483230E9405
:104630008B23E0EEF0E0808181608083E8EDF0E0A4
:1046400080818F77808319BCA7EDB0E08C918E7F3D
:104650008C9380818F7E80831092630308950F93E3
:104660001F93CF93DF930E9483230E948B23C8ED77
:10467000D0E088818F77888388818068888388816B
:104680008F7D888319BC109264031092600310928E
:1046900062031092610300EE10E0F80180818B7FCD
:1046A000808388818160888342E060E080E00E94AE
:1046B0009122E1EEF0E080818E7F8083E2EEF0E0F7
:1046C000808181608083808188608083F80180811F
:1046D0008E7F8083888180618883DF91CF911F9155
:1046E0000F910895E8EDF0E080818F7E8083E7ED03
:1046F000F0E080818160808384E082BF81E08093EC
:1047000063030C942F23E8EDF0E080818E7F80839B
:104710001092E20008951092DA001092E1000895DC
:104720001F920F920FB60F9211242F933F934F9326
:104730005F936F937F938F939F93AF93BF93EF9309
:10474000FF938091E10082FF0BC08091E20082FF25
:1047500007C08091E1008B7F8093E1000E94FA25E1
:104760008091DA0080FF19C08091D80080FF15C0C9
:104770008091DA008E7F8093DA008091D90080FFEB
:1047800096C080E189BD82E189BD09B400FEFDCFFC
:1047900081E0809364030E94FA1F8091E10080FF12
:1047A00019C08091E20080FF15C08091E2008E7FE9
:1047B0008093E2008091E20080618093E20080912A
:1047C000D80080628093D80019BC85E08093640390
:1047D0000E940C208091E10084FF2BC08091E200B8
:1047E00084FF27C080E189BD82E189BD89B5982F0A
:1047F000917080FFFBCF8091D8008F7D8093D8008F
:104800008091E1008F7E8093E1008091E2008F7EB5
:104810008093E2008091E20081608093E2008091C9
:104820006003882309F449C084E0809364030E94F4
:104830000D208091E10083FF29C08091E20083FF79
:1048400025C08091E100877F8093E10082E0809322
:104850006403109260038091E1008E7F8093E100F9
:104860008091E2008E7F8093E2008091E20080617F
:104870008093E20042E060E080E00E94912280911B
:10488000F00088608093F0000E940B20FF91EF9170
:10489000BF91AF919F918F917F916F915F914F9158
:1048A0003F912F910F900FBE0F901F90189519BC3C
:1048B000109264030E94082070CF8091E30087FD6E
:1048C00093E090936403B3CF1F920F920FB60F92B1
:1048D00011242F933F934F935F936F937F938F9305
:1048E0009F93AF93BF93CF93DF93EF93FF93D091B9
:1048F000E900DF708091EC00C82FC17080FDC0E836
:104900001092E9008091F000877F8093F000789406
:104910000E94A8241092E9008091F00088608093A2
:10492000F000CD2BCF70C093E900FF91EF91DF91A4
:10493000CF91BF91AF919F918F917F916F915F9137
:104940004F913F912F910F900FBE0F901F90189590
:104950001F93CF93DF93CDB7DEB7AA970FB6F89426
:10496000DEBF0FBECDBF85E693E02091F100FC01D4
:104970002193CF01F3E08D369F07B9F70E941920EC
:104980008091E80083FF1EC18091650390916603CA
:104990009A3008F017C1E92FF0E0E75EF74D0C946C
:1049A0003E26803899F0823809F00CC18091690365
:1049B0008F70873008F006C18093E9008091EB008A
:1049C00085FB882780F91092E90006C08091610379
:1049D00090916203911182609091E800977F90938B
:1049E000E8008093F1001092F1008091E8008E774A
:1049F000E5C0882309F4D3C0823009F0E3C0809178
:104A000067038111D6C0809169038F702FEF280F43
:104A1000263008F0D7C08093E9002091EB0020FFFA
:104A2000C8C0933031F48091EB0080628093EB003A
:104A3000C0C09091EB0090619093EB0021E030E0DA
:104A400001C0220F8A95EAF72093EA001092EA004B
:104A50008091EB008860EACF8111B4C010916703A8
:104A60001F778091E3008078812B8093E300809111
:104A7000E800877F8093E8000E94C5228091E800CB
:104A800080FFFCCF8091E30080688093E30082E0A8
:104A9000111183E08093640395C08058823008F040
:104AA00091C080916703909168038C3D23E0920749
:104AB000A1F583E08A838AE289834FB7F894DE0107
:104AC000139620E03EE051E2E32FF0E050935700D0
:104AD000E49120FF03C0E295EF703F5FEF708E2FEF
:104AE00090E0EA30C0F0C7968D939D932F5F2431FC
:104AF00059F74FBF8091E800877F8093E8006AE212
:104B000070E0CE0101960E94D4218091E8008B775D
:104B10008093E80057C0C096E7CF60916903709119
:104B20006A03AE014F5F5F4F0E940F21BC01892BCA
:104B300009F448C09091E800977F9093E80089813C
:104B40009A810E943222E1CF8038E1F58091E8001D
:104B5000877F8093E800809160038093F10045CFC8
:104B6000811130C090916703923060F58091E80028
:104B7000877F8093E800909360030E94C522809114
:104B80006003882311F084E005C08091E30087FD75
:104B9000FACF81E0809364030E940F2013C08091BC
:104BA0006703813079F481E0933009F080E08093ED
:104BB00062031092E9008091E800877F8093E8000B
:104BC0000E94C5228091E80083FF0AC08091E8001E
:104BD000877F8093E8008091EB0080628093EB00F8
:104BE000AA960FB6F894DEBF0FBECDBFDF91CF916E
:104BF0001F9108950895CF93809164038823A1F0B5
:104C0000C091E900CF709091EC00892F817090FDE8
:104C100080E8C82B1092E9008091E80083FD0E9493
:104C2000A824CF70C093E900CF910895AA1BBB1BA5
:104C300051E107C0AA1FBB1FA617B70710F0A61B9C
:104C4000B70B881F991F5A95A9F780959095BC01BD
:104C5000CD01089597FB072E16F4009407D077FD39
:104C600009D00E94162607FC05D03EF49095819548
:104C70009F4F0895709561957F4F0895EE0FFF1F28
:104C80000590F491E02D09940F931F93CF93DF9338
:104C90008230910510F482E090E0E0916F03F09192
:104CA000700330E020E0B0E0A0E0309799F42115E7
:104CB000310509F447C0281B390B24303105C0F5F4
:104CC0008A819B816115710571F1FB019383828358
:104CD000FE0111C04081518102811381481759079B
:104CE000F8F04817590799F4109761F012960C9351
:104CF000129713961C933296CF01DF91CF911F919B
:104D00000F91089500936F0310937003F4CF211552
:104D1000310519F04217530718F49A01BD01EF014C
:104D2000DF01F801C2CF9093700380936F03D0CF5F
:104D3000FE01E20FF31F81939193225031093983D1
:104D40002883DACF20916D0330916E03232B41F439
:104D5000209102013091030130936E0320936D0383
:104D600020910001309101012115310541F42DB749
:104D70003EB74091040150910501241B350B409131
:104D80006D0350916E034217530708F0B5CF241BF3
:104D9000350B2817390708F4AFCFBC016E5F7F4F82
:104DA0002617370708F4A8CF640F751F70936E039A
:104DB00060936D03FA01819391939ECFCF93DF931C
:104DC0000097E9F0FC01329713821282C0916F03C1
:104DD000D0917003DE0130E020E02097A1F4208123
:104DE0003181820F931F20916D0330916E0328173C
:104DF000390709F067C0F0936E03E0936D03DF910C
:104E0000CF910895DA01AE17BF0708F040C012969F
:104E10004D915C9113979D014115510599F7D90169
:104E20001396FC93EE9312974D915D91A40FB51FCD
:104E3000EA17FB0779F4808191810296840F951F10
:104E4000D90111969C938E938281938113969C93A2
:104E50008E931297B0E0A0E08A819B810097B9F50C
:104E6000FE0181919191E80FF91F80916D0390915E
:104E70006E038E179F0719F6109761F51092700355
:104E800010926F03D0936E03C0936D03B8CFB383BA
:104E9000A28340815181840F951FA817B90771F42F
:104EA0004E5F5F4F8D919C911197480F591F518311
:104EB000408312968D919C919383828321153105B5
:104EC00009F0ADCFF0937003E0936F0398CFDE014C
:104ED000EC01C2CF13961C921E921297D3CFF99970
:104EE000FECF92BD81BDF89A992780B50895A6E1BD
:104EF000B0E044E050E00C94A927A8E1B0E042E023
:104F000050E00C94A927262FF999FECF92BD81BDC0
:104F1000F89A019700B4021639F01FBA20BD0FB6F7
:104F2000F894FA9AF99A0FBE08950396272F0E94D3
:104F300084270E948327252F0E948427242F0C94E6
:104F400084270196272F0E9484270C948327DC0155
:104F5000CB01FC01F999FECF06C0F2BDE1BDF89A84
:104F6000319600B40D9241505040B8F70895F8942E
:104F7000FFCFA40FA40F091009105510711078115C
:104F8000D20F7C100C111C111C118111A2118B115C
:104F90008E11951191119A11521252125B125B12DD
:104FA0005D125B125B125B125212521262125B12A2
:104FB0005B126212721E691E751E671EBA1EBA1E31
:104FC000671EBA1EBA1E911EBA1E9C1EA71EBA1ECE
:104FD000BA1EBA1EBA1E671EBA1EBA1E671EBA1EB7
:104FE000831EBA1EBA1EB81EB81EB81EB81EB81E42
:104FF000B81EB81EB81EB81EB21EBA1E721E651E9E
:10500000BA1EBA1EBA1EBA1EBA1EBA1EBA1EBA1EE0
:10501000BA1EBA1EB21EBA1EBA1E671EBA1EB61E2F
:10502000B61EB61EB61EB61EB61EB61EB61EB61EE0
:10503000B21ED124F924E225F924E2252C254D25A0
:06504000E225A425B025C5
:105046000000710320002000DD022808643C0714DC
:105056005B1FBA1F991F951F911F01000D010D02BD
:105066000D030D040D050D000C010C020C030C04C0
:105076000C050C000B010B020B030B040B050B00BC
:105086000A010A020A030A040A050A0009010902BA
:1050960009030904090509000801080208030804B0
:1050A60008050800070107020703070407050700AC
:1050B60006010602060306040605060005010502AA
:1050C60005030504050505000401040204030404A0
:1050D600040504000301030203030304030503009C
:1050E600020102020203020402050200010101029A
:1050F6000103010401050100000100020003000490
:10510600000500E200E900EA00B500B600B700CDF0
:10511600008301CC008A019201940121022302241A
:10512600022502260227022A02B300B4006F00708D
:1051360000818283E200E900EA00B500B600B7000C
:10514600CD008301CC008A01920194012102230241
:1051560024022502260227022A02B300B4006F00A9
:105166007000818283010203040506070809000016
:00000001FF
