:100000000C94CE030C94EB030C94EB030C94EB03D5
:100010000C94EB030C94EB030C94EB030C94EB03A8
:100020000C94EB030C94EB030C94082F0C94DC2F32
:100030000C9490250C94EB030C94EB030C94EB03C1
:100040000C94EB030C94EB030C94EB030C94EB0378
:100050000C94EB030C94DB250C94EB030C94EB0356
:100060000C94EB030C94EB030C94EB030C94EB0358
:100070000C94EB030C94EB030C94EB030C94EB0348
:100080000C94EB030C94EB030C94EB030C94EB0338
:100090000C94EB030C94EB030C94EB030C94EB0328
:1000A0000C94EB030C94EB030C94EB0331002B004A
:1000B0000154E100500100001E00140004001D0066
:1000C0004F0107551F001A0016001B00E0002B000F
:1000D0002000080007000600E2002C0021001500A7
:1000E00009001900E3000F55220017000A0005005F
:1000F000BD0006082900015300002A00BE001908AF
:100100003500025300002B00C25C2F0023001C00AE
:100110000B001100A8003000240018000D00100092
:1001200050004B0025000C000E0036005200280045
:10013000260012000F00370051002A00270013008C
:10014000330038004F004E002E002D003400E50033
:10015000E4000000010001000100010001000000B6
:100160003A00CD5CCE5CD25C010001003B00C75C74
:10017000C85CCF5C010001003C00CB5CCC5CD45C73
:10018000010001003D00C55CC65CD15C01000100BE
:100190003E00C95CCA5CD05C010001003F00010068
:1001A000000001000100010040000100000001000A
:1001B00001000100410000000000000001000100FA
:1001C000420059005C005F006200010043005A00D9
:1001D0005D0060006300010044005B005E006100A0
:1001E000580001004500540055005600570001001A
:1001F0006700010001000100010000000100010092
:100200000100010001000000680000000000000083
:10021000010001006B00000000000000010001006F
:100220006C00000000000000010001006D000000F3
:1002300000000000010001006E000000000000004E
:1002400001000100000001000000010001000100A8
:100250000000010000000353010001006F00F400E2
:10026000FB000000010001007000F400F20000003B
:10027000000001007100F900F000F100FA00010037
:100280007200F500F3000000000001007300F500AB
:10029000FC00000000000100000000000000010060
:1002A0000100000001000100010001000100000048
:1002B0000000B5000000BB00010001000000B60016
:1002C0000000BC00010001000000B7000000AE000B
:1002D000010001000000B4000000AD0001000100B9
:1002E0000000B9000000A8000100010000000100AA
:1002F00000000100010001000000010000000100F9
:1003000001000100000001000100000001000100E7
:1003100000000100010000000100010000000100D8
:1003200001000100010001000000010001000000C7
:1003300001000100000001000100000001000100B7
:1003400000000000000001000100000000000000AB
:10035000000000002A2B2800000000000000000020
:100360000000000000000029000000002C1E3420C6
:10037000212224342627252E362D3738271E1F20EC
:100380002122232425263333362E37381F04050631
:100390000708090A0B0C0D0E0F1011121314151675
:1003A0001718191A1B1C1D2F3130232D3504050673
:1003B0000708090A0B0C0D0E0F1011121314151655
:1003C0001718191A1B1C1D2F3130354C0000000066
:1003D000000000000000000000000000000000001D
:1003E0007E0F00D4FFFFFFC70000007832190A001B
:1003F000047F3F1F643214643214783C1E1E140ABA
:10040000052223252628292A2C2D2F303233353654
:10041000383A3B3D3E4042434547494A4C4E505195
:10042000535557595A5C5E6062646668696B6D6FBC
:1004300071737577797B7D7F81838587898A8C8EBF
:1004400090929496989A9C9E9FA1A3A5A7A8AAACC7
:10045000AEAFB1B3B4B6B8B9BBBCBEBFC1C2C3C501
:10046000C6C7C9CACBCCCDCED0D1D2D2D3D4D5D6A3
:10047000D7D7D8D9D9DADADBDBDBDCDCDCDCDCDDD6
:10048000DDDDDDDCDCDCDCDCDBDBDBDADAD9D9D8BA
:10049000D7D7D6D5D4D3D2D2D1D0CECDCCCBCAC952
:1004A000C7C6C5C3C2C1BFBEBCBBB9B8B6B4B3B181
:1004B000AFAEACAAA8A7A5A3A19F9E9C9A9896941C
:1004C00092908E8C8A89878583817F7D7B797775F1
:1004D00073716F6D6B6968666462605E5C5A5957D0
:1004E000555351504E4C4A4947454342403E3D3B8F
:1004F0003A3836353332302F2D2C2A292826252319
:1005000022FFAA7F55400001010101010101010103
:1005100002020202020202020203030303030303B4
:100520000304040404040404050505050506060681
:100530000606070707070708080808090909090A3E
:100540000A0A0B0B0B0C0C0C0D0D0D0E0E0E0F0FE3
:100550000F10101111111212131314141515161671
:100560001717181819191A1A1B1B1C1D1D1E1E1FE0
:100570002020212222232424252626272829292A2F
:100580002B2C2D2D2E2F3031323233343536373857
:10059000393A3B3C3D3E3F40414243444546474853
:1005A000494A4C4D4E4F50515354555658595A5B29
:1005B0005D5E5F616264656668696B6C6D6F7072C9
:1005C000737577787A7B7D7E8082838587888A8C35
:1005D0008E8F91939596989A9C9EA0A2A3A5A7A969
:1005E000ABADAFB1B3B5B7BABCBEC0C2C4C6C9CB60
:1005F000CDCFD1D4D6D8DBDDDFE2E4E7E9EBEEF016
:10060000F3F5F8FAFDFF040330000000160345007F
:10061000720067006F0044006F0078002000450002
:100620005A00000028035A005300410020005400E3
:100630006500630068006E006F006C006F0067006B
:10064000790020004C006100620073000000040388
:10065000090409023B00020100A0FA09040000019C
:100660000301010009211101000122400007058159
:100670000308000A09040100010300000009211118
:1006800001000122BC000705820320000A120110AC
:1006900001000000089732744901000102030105BE
:1006A000010902A10185020901A100050919012919
:1006B00005150025019505750181029501750381D8
:1006C000010501093009311581257F9502750881E1
:1006D0000609381581257F950175088106050C0AE4
:1006E00038021581257F950175088106C0C0050176
:1006F0000980A101850319012AB700150126B70059
:10070000950175108100C0050C0901A1018504192E
:10071000012AA002150126A002950175108100C0D2
:1007200005010906A1018505050719E029E715005E
:1007300025019508750181020507190029EF1500AB
:10074000250195F075018102050819012905950516
:1007500075019102950175039101C005010906A17A
:1007600001050719E029E7150025019508750181A4
:10077000029501750881010507190029FF1500265A
:10078000FF009506750881000508190129059505E2
:1007900075019102950175039101C00011241FBEDE
:1007A000CFEFDAE0DEBFCDBF12E0A0E0B1E0E4EFD2
:1007B000FEE602C005900D92AA38B107D9F724E0F1
:1007C000AAE8B2E001C01D92A53DB207E1F70E9480
:1007D000482C0C94FA360C9400008098889A8198E2
:1007E000899A84988C9A85988D9A86988E9A8798FB
:1007F0008F9A0895209828982198299822982A98C5
:1008000023982B9852985A9853985B983E984698FC
:100810000895CF93C82F873070F580910A01909189
:100820000B01892B89F564E670E080E40E9457177C
:1008300090930B0180930A01892BD1F464E670E058
:1008400082E10E94B31790930B0180930A01892BD8
:1008500079F481E090E001C0880FCA95EAF764E678
:1008600070E080950E94B31790930B0180930A016A
:10087000CF910C9406188A30B9F040F4883071F0AA
:10088000893079F0209A2898CF9108958C3091F092
:1008900070F08D30B9F73E9A4698F6CF219A299894
:1008A000F3CF229A2A98F0CF239A2B98EDCF529A21
:1008B0005A98EACF539A5B98E7CFCF93873050F599
:1008C00080910A0190910B01C0E0892B71F464E6DC
:1008D00070E081E40E94571790930B0180930A0106
:1008E000892B31F0C0E00E9406188C2FCF9108951B
:1008F00084E690E00E94E21797FF05C090930B01F9
:1009000080930A01EFCFC82FC09510920B0110926F
:100910000A01E9CFCFB18FB1869586958C73C370EC
:100920008C2BC82FC095E1CF0E94D20590E0909308
:100930000B0180930A010E94FA030C94ED03EF92DD
:10094000FF920F931F93CF93DF9380910A019091B1
:100950000B01892B91F080918A028F5F80938A022C
:1009600081110BC00E94D20590E090930B018093FF
:100970000A01892B11F40E9467050EE314E0C0E020
:10098000D0E087E0E82EEC0E8C2F0E9409048E2D1B
:100990000E9409048C2F0E945D04F80191918F013F
:1009A000F12C891721F031978083FF24F3948E2D49
:1009B0000E945D04F8019681891789F0868381E0A1
:1009C0008F29D82B0E94FA03CF5FC730D1F68D2F25
:1009D000DF91CF911F910F91FF90EF90089580E0EC
:1009E000EFCF0E94D20590E090930B0180930A0113
:1009F0000E94FA030E94ED03ECE4F4E0119284E01B
:100A0000EA35F807D9F70895CF92DF92FF920F9356
:100A10001F93CF93DF938C01F62E0E94511764E64B
:100A200070E084E80E945717E801C95ADF4F680157
:100A30008AE2C80ED11C64E670E088810E94B31778
:100A400064E670E089810E94B31764E670E08A81F1
:100A50000E94B3172397CC15DD0569F70E9406188D
:100A60006F2D70E0C801DF91CF911F910F91FF9022
:100A7000DF90CF900C941513259A2D9A0895269AFD
:100A80002E9A0895279A2F9A089556985E98089559
:100A900025982D98089526982E98089527982F9890
:100AA00008950E9445050E9448050E944B050C943C
:100AB0004E0590E0909389008093880090938B007E
:100AC00080938A0090938D0080938C0008950E94FB
:100AD00051058FEF0E9459050E943C052FEF80E7DA
:100AE00092E0215080409040E1F700C000000E9459
:100AF0003F052FEF80E792E0215080409040E1F7E2
:100B000000C000000E9442052FEF80E792E02150D4
:100B100080409040E1F700C000000E9448052FEFA0
:100B200080E792E0215080409040E1F700C0000053
:100B30000E944B052FEF80E792E0215080409040CB
:100B4000E1F700C000000E944E050C94510589EAAF
:100B50008093800089E08093810024982C983F98AE
:100B60008AB18F7C8AB96E98479A8BB180638BB9B2
:100B7000769A0E94F42360933A0470933B04809326
:100B80003C0490933D0467702FEF629FC0011124D5
:100B900095958795959587950E9459050E946705BB
:100BA0000C94610680E290E090930B0180930A011F
:100BB00080918B0281110EC00E94511781E08093B9
:100BC0008B022FEF83ED90E3215080409040E1F7BE
:100BD00000C0000064E670E080E40E945717909324
:100BE0000B0180930A01892B09F04EC064E670E086
:100BF00080E00E94B31790930B0180930A01892B28
:100C000009F042C064E670E080E00E94B317909360
:100C10000B0180930A01892BB9F564E670E08FE33C
:100C20000E94B31790930B0180930A01892B61F501
:100C30000E94061864E670E080E40E9457179093C3
:100C40000B0180930A01892BF9F464E670E08CE0D3
:100C50000E94B31790930B0180930A01892BA1F492
:100C600064E670E080E00E94B31790930B018093DC
:100C70000A01892B49F464E670E08FE30E94B31700
:100C800090930B0180930A010E94061880910A013B
:100C9000089510923A0410923B0410923C04109272
:100CA0003D0484E0806180933A0460913A0470913D
:100CB0003B0480913C0490913D040E94F8230C94E5
:100CC00004240895CF936091D5037091D603809149
:100CD000D7039091D8030E947923C82F0E9445051D
:100CE0000E9448050E944B050E944E05C23059F0F3
:100CF000C33071F0C13099F40E943C050E944B054D
:100D0000CF910C944E050E943F050E944805F8CFF4
:100D10000E9442050E944805CF910C944B05CF914B
:100D20000895811106C089EA611101C08AEA0C9414
:100D3000A01A813029F48EE46111F9CF8BE4F7CF4A
:100D40000895CF93DF939C013A9521153F4168F5B3
:100D5000EC01CC27D170DC01AA27B270AC0144278A
:100D600054709C012227387094FF11C080E1CD2B74
:100D700009F480E0AB2B09F08062452B09F0806418
:100D8000232B09F08068FB01DF91CF91099481E06A
:100D9000CD2B09F480E0AB2B09F08260452B09F0E4
:100DA0008460232B81F38860EECFDF91CF9108958B
:100DB000CF93DF93EC01805E9109089720F06DE7F7
:100DC0007DE1209711F463EB7AE1CE010E94A10648
:100DD0008C2FDF91CF910C94B319CF93DF93EC015B
:100DE0000E944A1ACE01805E9109089720F064E8BB
:100DF0007DE1209711F46AEB7AE1CE01DF91CF918A
:100E00000C94A106CF93DF93EC010E94D806CE018B
:100E1000DF91CF910C94ED0681E0089581E0089573
:100E20000C940E0708950C9412071F93CF93DF9331
:100E300000D000D00F92CDB7DEB749835A836B83C1
:100E40003091630389819A8131111DC06623B9F005
:100E50002223A9F00E941922182F682F89819A81D4
:100E60000E94C22169817A81812F0F900F900F908B
:100E70000F900F90DF91CF911F910C949A080E94D0
:100E8000F021182FEFCF0E94192269817A81EDCFCE
:100E9000FC01262F408151816281738184810C94F1
:100EA0001507CF93DF93EC0160E00E944807BE0175
:100EB000DF91CF910C941307FF920F931F93CF9361
:100EC000DF93E82FF0E0E45BFC4FF490C82FC69569
:100ED000C695C695D0E0FE01E452FC4F04918770A0
:100EE00010E0082E02C0159507950A94E2F70170EC
:100EF0001127C453DC4FFE01C491D0E002C0D59548
:100F0000C7958A95E2F7C170DD270115110519F023
:100F100081EE0E94B319209719F086EE0E94B31952
:100F20008F2D0E94A01ACD2B19F086EE0E944A1A2E
:100F3000012B41F081EEDF91CF911F910F91FF9036
:100F40000C944A1ADF91CF911F910F91FF90089551
:100F5000EF92FF920F931F93CF93DF93EC01162F25
:100F60000AE08881882309F454C0813009F04EC01A
:100F70008981813099F47E0122E0E20EF11C8A81A0
:100F80000E94A01AE7012196812F815050F3EFE9CA
:100F9000FFE03197F1F700C00000F7CF823041F455
:100FA0007E0182E0E80EF11C8A810E94B319EACF2B
:100FB000833041F47E01E2E0EE0EF11C8A810E9452
:100FC0004A1AE0CF843011F02196DDCF2A81229693
:100FD00090E080E0AE014F5F5F4F2053330B2A302B
:100FE000310548F0019778F2EFE9FFE03197F1F72A
:100FF00000C00000F7CF089FB001099F700D1124B9
:10100000C901860F971F2981EA01E4CF0E945C077E
:10101000BACFDF91CF911F910F91FF90EF9008957C
:1010200060E00C94A8070E94C623811102C00E94B0
:1010300060240E94B0130C94A7050C948D0A282FED
:101040002F7041F0822F90E02A3010F44D960895D1
:101050000697089587E290E0089508950C942D086E
:1010600081E008950C943008CF93C82F0E942E0879
:101070008C2FCF910C94320808950E94A11D0E94DC
:101080003C082FEF84E39CE0215080409040E1F742
:1010900000C000000C94FF250F931F93CF93DF93A4
:1010A000EC0161E00E9448078C01BE010E9410071C
:1010B0008823B9F1BE01C8010E942714882389F151
:1010C000BE01C8010E94EA16882359F1BE01C80179
:1010D0000E94D014882329F1BE01C8010E94221564
:1010E0008823F9F0BE01C8010E9445168823C9F083
:1010F000BE01C8010E94A512882399F08A81882325
:1011000039F001158CE5180751F00E3D1C4579F0BA
:10111000CE01DF91CF911F910F910C940C070E948B
:101120003D0880E0DF91CF911F910F9108950E94BB
:101130006024F7CF972F70E026E0929F600D711D1D
:101140001124FB0194E5899FE00DF11D1124EE0FA0
:10115000FF1FE455FF4F859194910895CF93DF933E
:101160000E949A080E94B309EC01811522E59207BA
:1011700008F047C0811531E5930708F0C1C0883EEB
:10118000910530F5803E910508F099C0883A9105A7
:1011900088F4853A910508F08BC08130910509F4F7
:1011A0008EC0009709F48BC0049708F088C0D0E087
:1011B000C0E085C08F3B9105D0F7C85AD0E0CC0F76
:1011C000DD1FC352DE4F0990D881C02DD46477C093
:1011D0008115904250F4C11581E0D80708F06FC026
:1011E000C03FD10520F3D0656AC0C11590E4D9078E
:1011F000F0F2C11520E5D20708F065C0DF70D06AB3
:101200005EC0811536E5930718F5811545E594070D
:1012100008F08EC0C11584E5D80708F084C09C2F63
:10122000969596959E0123703327C115D34508F4F2
:101230006CC0C1E0D0E002C0CC0FDD1F2A95E2F700
:1012400030E2939FC0011124C82BD92BDA6837C034
:10125000C1158AE5D80778F4C11599E5D90708F0D2
:1012600071C0C11528E5D20708F4A1CFDC2FCC2727
:10127000C06FD06A24C0C1153BE5D30708F497CFEF
:10128000C1154CE5D40708F46BC0CE01905681150A
:10129000904208F08CCF8D2F8F710E944A0A90E007
:1012A000982F882788279F719C012C2BE90148C023
:1012B000C55AD0E0C55FDD4FC881D0E0D064CE0113
:1012C000DF91CF910895CE01E4E096958795EA9558
:1012D000E1F783702C2F26952695237040E2249FFA
:1012E00090011124382B8C2F8370C1E0D0E002C014
:1012F000CC0FDD1F8A95E2F7C22BD32BDC68DFCF42
:10130000D82FCC27C16FD06ADACFC1E0D0E002C0BD
:10131000CC0FDD1F2A95E2F720E2929FC001112435
:10132000C82BD92BEBCFDC2FCC27C46FD06AC7CF0B
:101330000E944A0AC82FD0E0DC2FCC27CC27DF71CF
:10134000D062BDCF8C2F8F700E944A0A34E0D695B0
:10135000C7953A95E1F7CF709C2FEC01D069AFCFDC
:10136000DD27D066ACCF82389105B1F1B0F481337E
:10137000910509F475C048F48932910509F469C0F2
:101380008A32910509F473C008958533910509F4F3
:1013900059C08933910501F10895833E9105A9F162
:1013A00038F4803E9105F9F0823E910549F10895A7
:1013B000863E9105A9F1873E9105C9F1843E9105CC
:1013C00019F52091C30421FF1FC08091C20484FD40
:1013D00014C087EE90E008952091C2042370A1F01C
:1013E00080EE90E008952091C20420FD47C0309126
:1013F000C30430FF09C024FF44C090E080E004C073
:101400002091C20422FDF7CF08952091C20422FD4D
:101410003BC03091C30430FDE3CF24FFF5CFEDCFC7
:101420002091C20423FFF0CF24FDE7CFD2CF20913B
:10143000C20423FD2CC03091C30431FFEECF84EEF3
:1014400090E008952091C20425FFDECF89E290E06C
:1014500008952091C20425FFD7CF85E390E0089539
:101460002091C20426FFD0CF8AE290E00895209117
:10147000C20426FFC9CF81E390E0089589E390E09C
:10148000089583EE90E0089582EE90E0089586EE50
:1014900090E008959091C20492FF06C0282F287111
:1014A0002830F9F4877F846093FF06C0282F2871C5
:1014B0002831F1F4877E84612091C30420FF06C0A7
:1014C000382F38713830D9F4877F816021FF06C00A
:1014D000282F28712831D1F4877E816194FD877E81
:1014E0000895282F24712430F9F68B7F8860DCCF93
:1014F000282F2471243101F78B7E8861DDCF382FAE
:101500003171313019F78E7F8860E0CF282F21713B
:10151000213121F78E7E8861E1CF0C946206E82F9D
:10152000F0E0E45BFB4F8081089508950E949404ED
:10153000EEE3F4E0ACE4B4E011921D9284E0EC340C
:10154000F807D1F78EE00E94BA0A0C941308CF93E3
:101550008EE394E00E949F04C82F282F4EE06CE495
:1015600074E08EE394E00E94430B0E941D088C2FD0
:10157000CF910895CF93C82F90E00E942932809395
:10158000900290939102282FFC019BEF8E2F821BDB
:101590008C1710F0CF9108959193F8CFEF92FF92AE
:1015A0000F931F93CF93DF93A62F10928F0230914A
:1015B0009002E32FF091910220E0E62EF12CBBEF98
:1015C0000BEF10E09E2F931B981748F020938F028B
:1015D000DF91CF911F910F91FF90EF90089591911E
:1015E0009B3F81F3492F50E0A91798F0B701641B86
:1015F000750BAB01052E000C660B770B4E315105B8
:101600006105710568F0AF0141505109EA01B883E5
:10161000D9CFE801C41BD50BAE014E0D5F1DEACF3B
:1016200021E0D0CF0F931F93CF93DF9310929202BC
:101630005091900230918F02DB018C01E52FF091E7
:10164000910290E08E2F851B841748F030938F0213
:1016500090939202DF91CF911F910F9108956D9118
:10166000E80189918E01681751F060816B3F49F460
:101670002083BD0161507109EB01888331E031960F
:10168000E1CF91E0FCCFDF92EF92FF920F931F9397
:10169000CF93DF93EC018B01E42ED22E0E94C02564
:1016A00060918D0270918E0290938E0280938D02D4
:1016B00020918C0230E0261B370B820F931F6BEFBB
:1016C00070E00E94A831F82E80938C0280918F02E6
:1016D000882319F16F2D8E2D0E94CE0ADD2069F02E
:1016E0002F2D4E2DB801CE01DF91CF911F910F917B
:1016F000FF90EF90DF900C94120B80918F02882363
:1017000079F3809192028111EBCFDF91CF911F91FC
:101710000F91FF90EF90DF900895D110E1CFF1CFBE
:10172000EF92FF920F931F93CF93DF93EB01E82F7C
:10173000D11110C0442321F0F0E0EA5FFA4FE491A8
:101740006E2F7E2F8E2FDF91CF911F910F91FF90E3
:10175000EF9008950D2F10E0282F30E0442329F05A
:101760002A5F3A4FF901249130E0F6E0CF9FC001A3
:101770001124EFEFF0E0BF010E94A831AB018C2FE4
:1017800090E0880F991FA5E5A49FB001A59F700D5B
:101790001124861B970B982F990F980FBF01601B80
:1017A000710B629FD001639FB00D729FB00D112429
:1017B0008B2F9D9FB0011124672F7727EF01C61B48
:1017C000D70BBE01629FE001639FD00D729FD00DC9
:1017D00011247F01E91AF108E09EB001E19E700D2D
:1017E000F09E700D1124672F7727E61BF70BE29F01
:1017F0008001E39F100DF29F100D1124E12F722F35
:101800004230510599F048F44115510569F04130D5
:10181000510581F0EB2F8D2F07C04430510569F041
:1018200080F046305105B1F76E2F8DCFE22F7B2F20
:10183000812FFACFE22F7D2FF7CFEB2F822F712F41
:10184000F3CF7B2F822FED2FEFCF41E00C94900B45
:101850000895CF93DF93762FE901682F842F0E949C
:10186000250C798368838A83DF91CF9108958091D5
:101870005A04982F9E7F29F48170826080935A04C5
:1018800008958635E8F381708465F8CF88E090E0AC
:101890000C946436CF92DF92EF92FF926B017C0141
:1018A0000E94370CB701A60188E090E0FF90EF900E
:1018B000DF90CF900C948236EAE5F4E083E08083F9
:1018C00011828FEF82838383148260817181828190
:1018D00093810C944A0C80915A0480FF02C0869533
:1018E000089580E0089590915E04933018F49F5F0E
:1018F00090935E04882351F060915A0470915B04C8
:1019000080915C0490915D040C944A0C089581E0F0
:101910000C94730C90915E04992319F0915090935C
:101920005E04882351F060915A0470915B048091A9
:101930005C0490915D040C944A0C089581E00C9431
:101940008A0C6091100180915A0480FF0AC0809136
:101950000F0123E0829FC0011124815A9B4F0C94F8
:101960000405809111019091120123E0829FF00102
:101970001124E15AFB4F891750F71182108212820D
:101980008F5F3396F8CF90915A0490FF14C09091D6
:1019900011012091120133E0939FF0011124E15ACB
:1019A000FB4F921710F00C94A10C8183608342834B
:1019B0009F5F3396F6CF0895CF93DF9300D00F92B9
:1019C000CDB7DEB790915A0490FF0AC09E012F5FF9
:1019D0003F4F0E94290C4B8169818A810E94C30C70
:1019E0000F900F900F90DF91CF910895CF93DF93D9
:1019F000EC01EC81F0E0EF5FFB4F4491EAE5F4E0AD
:101A0000628181810E94DC0C8C818F5F8C83DF91ED
:101A1000CF910895CF93DF93EC01EAE5F4E04381A1
:101A200062818C810E94DC0C8C818F5F8C83DF91C2
:101A3000CF9108950F931F93CF93DF9300D00F9210
:101A4000CDB7DEB78C018091930281110AC09E014F
:101A50002F5F3F4F4FEF6FEF0E94290C8A818093D9
:101A60009302F8016481613069F08091930240E053
:101A7000662361F040E0623011F44091930280E00F
:101A800060E004C06091930240E080E00E94C30CDB
:101A9000F801848190E0019663E070E00E94BC311F
:101AA00084830F900F900F90DF91CF911F910F9132
:101AB0000895AF92BF92CF92DF92EF92FF920F9371
:101AC0001F93CF93DF9300D00F92CDB7DEB7182FBF
:101AD000F62E042FE22E90915A0490FF29C0E92F90
:101AE000E695AE2FB0E0A25FBD4F8C91809333039B
:101AF0009E7F923059F59E012F5F3F4F812F0E94AC
:101B0000290C4B8169818A810E94C30C10935B046C
:101B1000F0925C0400935D04EE2051F060915A0451
:101B200070915B0480915C0490915D040E944A0C6A
:101B30000F900F900F90DF91CF911F910F91FF9019
:101B4000EF90DF90CF90BF90AF900895823019F45E
:101B500000915D04DBCF863019F410915B04D6CF81
:101B60008930D9F3893191F6E9518E2F8170D82EC1
:101B7000E695F0E0EF5FFA4FA590B490C12CBB243E
:101B800060911301C61618F00E94A10CBFCF2C2D36
:101B900030E0A29EC001A39E900DB29E900D112434
:101BA00070E00E94A831812FD11013C0860F4091A0
:101BB0001101420F532F511D9A01220F331F240F81
:101BC000351F215A3B4F402F6F2D0E94290CC39483
:101BD000D7CF861BECCFEAE5F4E09181282F438133
:101BE00062818CE0890F0C94590D81E00C94EB0D0F
:101BF000EAE5F4E09181282F4381628184EF890F27
:101C00000C94590D81E00C94F80DEAE5F4E0628142
:101C10002FEF620F08F46FEF282F438181810C941E
:101C2000590D81E00C94050EEAE5F4E062812FEF96
:101C3000621B08F460E0282F438181810C94590DC8
:101C400081E00C94140EEAE5F4E043812CE0420FAD
:101C500008F44FEF282F628181810C94590D81E0A7
:101C60000C94230EEAE5F4E043812CE0421B08F4D7
:101C700040E0282F628181810C94590D81E00C9401
:101C8000320E20E00C94590DEF92FF921F93CF93E8
:101C9000DF93EC0110E0EE24EA94F12C6091130143
:101CA000161770F00E94A10C9A818C8190FF27C0BA
:101CB0008F5F8C83DF91CF911F91FF90EF900895FC
:101CC00020911101422F410F5527551FCA019A013A
:101CD000220F331F280F391F215A3B4F70E0C701D5
:101CE0000E94BC31962F8C8140915D0460915C0410
:101CF000199F800D11240E94290C1F5FCFCF8150A6
:101D0000D8CFAF92BF92CF92DF92EF92FF920F9314
:101D10001F93CF93DF93FC0182810FEF80FF01E0DF
:101D200010E04EE1A42E809113011817C8F00E9414
:101D3000A10C80919502013009F055C0811102C0BB
:101D400080911301815080939502DF91CF911F9173
:101D50000F91FF90EF90DF90CF90BF90AF900895DC
:101D6000C0911101C12ED12CCC0DDD2DD11DCE0184
:101D7000880F991FC80FD91FC15ADB4F19821882CB
:101D80001A8234E0E32EF12CB12C809195028B0D58
:101D90008F311CF16A2D0E949A31892F082E000C78
:101DA000990BC816D90691F480915D048E9DA0010F
:101DB0008F9D500D112455954795559547959E013A
:101DC00060915C0480915B040E94290CB00EF1E0EC
:101DD000EF1AF108D1F61F5FA6CF87FFDFCF9091F2
:101DE0001301890FDBCF90E001966091130170E041
:101DF0000E94BC31A8CF0F931F93CF93DF938091A4
:101E000011019091120123E0829FF0011124E15A07
:101E1000FB4F891740F1C0E0D3E060911301C61772
:101E200040F10E94A10C20910D0180919402820F3B
:101E30008093940290910E01920F90930E011916C7
:101E400054F4082E000C990B409113014150550B8E
:101E5000841795071CF0219520930D01DF91CF91F8
:101E60001F910F9108951182108212828F5F339615
:101E7000D0CF0C2F10E070E0C8010E94BC3120913F
:101E80001101820F482F50E020919402022E000C85
:101E9000330B02171307BCF020910E01022E000C29
:101EA000330B201731077CF08D9F90011124215AAC
:101EB0003B4F40915D0460915C0480915B040E9403
:101EC000290CCF5FAACFFA01EE0FFF1FE40FF51F19
:101ED000E15AFB4F118210821282F3CF8F929F92B0
:101EE000AF92BF92CF92DF92EF92FF920F931F9328
:101EF000CF93DF93EC014C81042F10E09801D801BF
:101F00000E9400329B01AC010E9416324B015C0121
:101F1000E0E2F0E0E01BF10BA5E5B0E0AC019B01D5
:101F20000E9416326B017C019F01DF010E94F83193
:101F30009B01AC010E9421329B01AC01280D391D8F
:101F40004A1D5B1DC701B6010E94D031F22E822FBF
:101F500090E039E23F1560F143E0249F90011124A5
:101F600035952795122F109500E085E5E82EEF189E
:101F700080911301081758F10E94A10C9C8181E007
:101F8000992319F0903219F48FEF80930C0180910E
:101F90000C01890F8C83DF91CF911F910F91FF90DE
:101FA000EF90DF90CF90BF90AF909F908F9008956B
:101FB00025E530E0B901681B790B9B01220F331F27
:101FC000260F371F37FFCCCF2F5F3F4FC9CF8E2D46
:101FD00001FD8F2D20911101622F600F7727771F50
:101FE0009B01220F331F260F371F215A3B4F412FD2
:101FF00060915C040E94290C0F5FBACF0F931F936E
:10200000CF93DF93EC0110E000E090911301901763
:10201000110609F06CF40E94A10C8C8190E00196ED
:10202000817099278C83DF91CF911F910F91089533
:1020300020911101A801420F511D9A01220F331F57
:10204000240F351F215A3B4F4C8160915C048091D5
:102050005B0496959017110651F04CF0442349F01B
:1020600040915D040E94290C0F5F1F4FCECF442387
:10207000B9F340E0F7CF8F929F92AF92BF92CF9289
:10208000DF92EF92FF920F931F93CF93DF93FC01A8
:10209000B280948081E0848300E015E05BE4A52EAB
:1020A00088248394EE24EA94F12C7BE4C72ED12C6F
:1020B00080911301081770F0DF91CF911F910F915C
:1020C000FF90EF90DF90CF90BF90AF909F908F9058
:1020D0000C94A10CC02FD0E01C9FF0011D9FF00DAF
:1020E0001124EA56FD4F91101CC0138212822091D8
:1020F0001101CE01820F911D9C01220F331F280F69
:10210000391F215A3B4F1C9FF0011D9FF00D1124D8
:10211000EA56FD4F4281618180810E94290C0F5F48
:10212000C7CF2381222379F12150238334818A2D43
:10213000821B311101C0822F1C9FF0011D9FF00DE9
:102140001124EA56FD4F90915D04899FC00111242E
:10215000B6010E94A8316283211104C0332311F01B
:102160001482A38222E02B1510F21C9FF0011D9F08
:10217000F00D1124EA56FD4F80915B04808380911D
:102180005C048183B4CF0E94A033823091400CF074
:10219000AECF82E08B1530F50E94A033B7010E94CC
:1021A000BC311C9FF0011D9FF00D1124EA56FD4F1C
:1021B000808322E02B15C8F40E94A03320915C0498
:1021C0002695622F70E00E94BC31280F1C9FF00101
:1021D0001D9FF00D1124EA56FD4F21831282A38228
:1021E000848285CF80915B04DCCF20915C04EECFAC
:1021F000EAE5F4E080818E7F808360817181828155
:1022000093810E944A0C109234032FEF80E792E0F2
:10221000215080409040E1F700C000000C94A10CD8
:10222000EAE5F4E080818E7F8083109234032FEF03
:1022300080E792E0215080409040E1F700C000002C
:102240000C94A10C60915A04669570E04BE050E04C
:1022500084E191E00E94B033892B19F481E08093EE
:1022600034030E94C02590932D0380932C0308957E
:1022700090915A0490FF35C09170811128C09260EE
:1022800090935A04662351F060915A0470915B0454
:1022900080915C0490915D040E944A0C60915A0404
:1022A000669570E04BE050E084E191E00E94B0332D
:1022B000892BA1F01092340381E080932F03409189
:1022C0005D0460915C0480915B040C94410E8B3240
:1022D00010F09465D5CF880F982BD2CF0E94221191
:1022E000EBCF0895682F90915A04969581E0890F5D
:1022F0008B3208F081E00C94381181E00C9472115B
:10230000682F90915A0496958FEF890F09F48AE20D
:102310000C94381181E00C94801161E00C94381118
:10232000EAE5F4E080818160808386950C948D11CC
:1023300080915A0480FD0C94F8100C94901160E088
:102340000C9438118091320381112EC00E94C62353
:10235000811104C00E9460240E945C0C0E94460C03
:1023600060935A0470935B0480935C0490935D04C3
:102370006E7F61F40E945C0C0E94460C60935A04CC
:1023800070935B0480935C0490935D040E94370C0F
:102390001092340380915A0480FF03C086950E94F6
:1023A0009F1181E0809332030895EAE5F4E0808193
:1023B0008160808386950C949F1110923403089558
:1023C0000F931F93CF93DF9380913403882309F4F5
:1023D0009DC080913303E0915A04E695E81BE09399
:1023E0002E038230C9F5F0E0E350FC4FE491CE2F8C
:1023F000D0E006EF1CE080912F03882389F0109233
:102400002F030E94C0259E0120953095820F931FB7
:1024100090932D0380932C0310923103109230037C
:1024200080912C0390912D030E94CC258C179D0741
:1024300008F46CC0E0912C03F0912D03CE0FDF1F48
:10244000D0932D03C0932C038CE293E0F801DF912D
:10245000CF911F910F910994863049F4F0E0E65036
:10246000FC4FE491CE2FD0E00AE01DE0C4CF8930CC
:1024700051F4E695F0E0E950FC4FE491CE2FD0E026
:1024800004E41EE0B8CF8F3051F4E695F0E0EC5054
:10249000FC4FE491CE2FD0E001E81EE0ACCF8531B7
:1024A00049F4F0E0EF50FC4FE491CE2FD0E00BEF79
:1024B0001EE0A1CFC8E2D0E00EE61FE0883109F4AB
:1024C0009ACF833239F4EFEEF3E0C591D4910AE16B
:1024D0001DE091CFC4EFD1E00EEF1FE0843209F48C
:1024E0008ACFC0EDD7E008E21CE0853209F083CF47
:1024F0008E2F63E00E948E31E92FF0E0E451FC4F13
:10250000E491CE2FD0E00BE310E175CFDF91CF91B6
:102510001F910F910895FA01811101C0FB010994E7
:10252000CF93DF93C82FD62F0E946B0C8C1740F0EF
:102530000E946B0C8D1720F4DF91CF910C947D11CC
:102540008C2FDF91CF910C948D110F931F93CF930C
:102550008C01FB01C281CC2309F465C00E94D42206
:102560008272F801E25CFC45E431F10538F4E45094
:10257000F94C0C94F2310E949811C0E08C2FCF914D
:102580001F910F9108954AE851E16DE771E10E94B2
:102590008B12F3CF4DE751E16AE871E1F8CF42E0E9
:1025A0005EE065EF7DE0F3CF45EF5DE062E07EE069
:1025B000EECF40E25EE061E17EE0E9CF41E15EE046
:1025C00060E27EE0E4CF4EE35EE06FE27EE0DFCFEC
:1025D0004FE25EE06EE37EE0DACF4EE95CE067E872
:1025E0007CE0D5CF47E85CE06EE97CE0D0CF81E0CD
:1025F0000E948D11C2CF65E082E00E949012BDCF93
:1026000068E086E0FACF6EE089E0F7CF64E18FE022
:10261000F4CF67E185E1F1CF88E1EACF62E289E1B9
:10262000ECCF83E2E5CFC1E0A9CF579A4BB14F770A
:102630005BB15068EFB7F8949B01220F331F260F50
:10264000371F280F391F2817390741F4EFBF8FE5CF
:1026500094E00197F1F700C000000895DC016D914E
:10266000CD0178E05BB9000000C067FF4BB9660F91
:10267000000000C000C000C04BB900C07A9591F7BF
:10268000E2CF0C9491063F98479A6E98769A86B15D
:1026900090E0880F892F881F990B669905C020E06C
:1026A000822B80933703089522E0FACFE09137031D
:1026B000EE0FEE0FE093370386B190E0880F892F7D
:1026C000881F990B4CB146FB222720F946FF02C018
:1026D00022E030E0822BE82BE0933703EF70F0E04C
:1026E000E75CFD4F808190913603890F809336031C
:1026F00084304CF0809135038F5F8093350360E028
:1027000080E00E944113809136038D3F4CF480910C
:10271000350381508093350361E080E00E944113CE
:1027200080913603837887FF03C081508C6F8F5F61
:10273000809336030895CF93DF93EC0197FF0CC08D
:10274000FB018281882341F00E94C613CE019F774E
:102750000E940A140E94F21381E0DF91CF91089544
:102760008CE090E00E945C3690E0B0E0A0E08093C6
:10277000B9049093BA04A093BB04B093BC04089529
:102780006091B9048CE090E00C9470360E94D422E1
:102790008093BD040E94E7228091B904813089F0C2
:1027A000882359F0823091F08430B9F08FE39CE9AE
:1027B0000197F1F700C00000089582EE0E94B3195E
:1027C000F5CF88E193E00E940207F0CF82EE0E94ED
:1027D000B31987E50E94A01AE9CF86EE0E94A01ADD
:1027E00088E1F8CF8091B904813071F0882341F0FD
:1027F000823031F0843061F08091BD040C94E42289
:1028000082EE0E944A1AF8CF8CE20E94A01AF4CFFE
:1028100088E2FBCF0F931F93CF93DF938C01CCE023
:10282000D0E0C8010C2E02C0969587950A94E2F775
:102830008F700E941F080E9402072497CC3F8FEFE1
:10284000D80779F7DF91CF911F910F9108950F93DA
:102850001F93CF93DF93EC018B01FB0182818823CF
:1028600061F00E94D422CE01815E9C4585309105A5
:1028700020F48093B9040E94C013B801CE01DF9107
:10288000CF911F910F910C949B13AF92BF92CF9257
:10289000DF92EF92FF920F931F93CF93DF937C0110
:1028A0005B01C42FD22FFC0182818823F9F0409371
:1028B0003A030E94C025909339038093380380E245
:1028C0008C0F883008F061C0C77081E001C0880FAC
:1028D000CA95EAF7DF91CF911F910F91FF90EF908A
:1028E000DF90CF90BF90AF900C94B31A10913A0341
:1028F000141340C080913803909139030E94CC2575
:102900006C01B701C5010E941720C816D90690F5C1
:10291000C0E2CD0F1D17B9F080E2810F883040F47E
:10292000177081E001C0880F1A95EAF70E94BA1A61
:10293000C83048F481E09D2F977001C0880F9A95A8
:10294000EAF70E94B31A802F0E94A01AC830E8F458
:10295000D77081E001C0880FDA95EAF7DF91CF9157
:102960001F910F91FF90EF90DF90CF90BF90AF90AD
:102970000C94BA1A80E28C0F883038F4C77081E06A
:1029800001C0880FCA95EAF7E9CFDF91CF911F9177
:102990000F91FF90EF90DF90CF90BF90AF90089590
:1029A0000F939C01CB01233F4CE5340759F1A8F468
:1029B000283DFCE53F0701F1293D4CE53407D1F105
:1029C000273D3C4591F406E221EE41EE67ED7CE5C2
:1029D0000E94451480E00F910895253FFCE53F07D4
:1029E000E9F0B0F0263F3C45F9F0FC0182818823F4
:1029F00039F110923A03EFCF07E225EE45EE68ED8C
:102A00007CE5E6CF06E221EE40EE63EF7CE5E0CF29
:102A100007E225EE44EE64EF7CE5DACF06E221EE34
:102A200042EE65EF7CE5D4CF07E225EE46EE66EF99
:102A30007CE5CECF08E221E045EE69ED7CE5C8CF2C
:102A400081E0C9CFCF93DF93EC01FB018281882322
:102A500009F419C1C230FCE5DF07C0F1C6319CE5BD
:102A6000D90730F09E012A5F3C452930310570F5C9
:102A70000E94D9239093C3048093C204C031ECE533
:102A8000DE0709F4CFC008F05BC0C8308CE5D8077A
:102A900009F4B6C088F5C430ECE5DE0709F4A8C037
:102AA000C0F4C2308CE5D80709F49CC08091C20400
:102AB0008260C330DC4509F498C08091C2049091D3
:102AC000C3040E94E7230E94A11D80E0DF91CF9103
:102AD00008958091C2048061C630ECE5DE0709F4F8
:102AE00084C08091C2048860C730DC4508F47DC092
:102AF0008091C204806279C0CC308CE5D80709F49B
:102B000089C070F48091C2048C60CA30ECE5DE07A5
:102B100009F46BC008F478C08091C2048E7F65C050
:102B2000CE308CE5D80709F479C08091C2048B7F40
:102B3000CF30DC4508F459C08091C2048F7E55C067
:102B4000CB3FECE5DE0709F457C030F5C3318CE527
:102B5000D80709F46FC078F4C131ECE5DE0709F459
:102B600065C0C231DC4509F0A8CF0E94A11D80914B
:102B7000C2048F773AC0C5318CE5D80709F462C02A
:102B800008F476C08091C3048160CA3FDC4509F037
:102B900094CF8093C30491CFCF3FFCE5DF0709F4C6
:102BA0004DC088F48091C3048D7FCD3F9CE5D9074B
:102BB00081F38091C3048E7FCE3FDC4550F380913A
:102BC000C3048360E6CFC130FDE5DF0709F459C0D7
:102BD00008F444C080E0C230DD4509F06ECF0E94A9
:102BE00062246BCF8091C20481608093C20465CF60
:102BF0008091C2048460F9CF8091C3048260C9CF00
:102C00008091C2048064F1CF0E94A11D8091C20412
:102C10008068EBCF8091C2048D7FE7CF8091C204A2
:102C2000877FE3CF8091C2048F7DDFCF8091C20484
:102C30008F7BDBCF8091C204837FD7CF8091C30489
:102C40008C7FA7CF8091C20482FB992790F921E065
:102C5000922790FB82F990FB83F9C7CF8091C30440
:102C6000982F909591708E7F892B90FB81F991CF51
:102C70000E94A11D9091C204892F97FB87F980586B
:102C8000B4CF81E0ACCF81E021CFCF93DF93EB01D4
:102C900086319C4511F50E94D4229A81992399F09E
:102CA0008A7A91E009F490E090933B03811109C086
:102CB00089E20E9489220E94162380E0DF91CF9151
:102CC000089585E3F6CF80913B03811104C089E22A
:102CD0000E949022F0CF85E3FBCF81E0EFCF80917F
:102CE0003C0390913D03892BE1F080913E0390914C
:102CF0003F030E94CC2520911F013091200128170D
:102D0000390780F480913C0390913D0392600E94CA
:102D1000020710923F0310923E0310923D0310925F
:102D20003C03089580913C030E94A01AF2CFCF93F8
:102D3000DF93EC010E94C02590933F0380933E03F4
:102D4000D0933D03C0933C03DF91CF9108958091D0
:102D50002101882321F0109221010C946F1681E04B
:102D6000809321010895109221010C946F160F9306
:102D70001F93CF93DF93CDB7DEB728970FB6F894A4
:102D8000DEBF0FBECDBF809120018F9380911F01C8
:102D90008F9389E492E09F938F931F9288E08F93A3
:102DA0008E010F5F1F4F1F930F930E94BD33C80109
:102DB0000E9410080FB6F894DEBF0FBECDBF289654
:102DC0000FB6F894DEBF0FBECDBFDF91CF911F913C
:102DD0000F9108951F93CF93DF93EC01FB011281B4
:102DE000112309F45AC08436910541F0F8F48B326E
:102DF000910521F0A8F404978497A8F40E946F1617
:102E0000809121018823B9F10E94D422811133C01D
:102E1000CE010E94971682E00E94612310E02BC031
:102E20008D970C9758F30E946F1625C089319C45E9
:102E300089F1CA318CE5D80788F4C731ECE5DE07A3
:102E400019F180911F01909120010597C831DC454F
:102E500051F79093200180931F010DC0CB318CE579
:102E6000D80771F030F0CC31DC45E9F60E94B3169A
:102E700002C00E94A716812FDF91CF911F91089564
:102E800081E080932101F7CF80911F019091200173
:102E90000596DFCF0E94B716EECF0E946F1611E0A5
:102EA000EACF1092B9008CE08093B8000895EF92B9
:102EB000FF920F931F93CF93DF93182FEB01109284
:102EC000BC0084EA8093BC000E94C0257C018091F4
:102ED000BC0087FF27C08091B900887F883029F027
:102EE0008091B900887F8031D9F51093BB0084E8C8
:102EF0008093BC000E94C0258C018091BC0087FF9C
:102F000024C02091B900287F90E080E02831B1F002
:102F100081E090E0203411F490E080E0919581957B
:102F200091090CC0CF3FDC0791F20E94C0258E1999
:102F30009F098C179D0758F28EEF9FEFDF91CF917D
:102F40001F910F91FF90EF900895CF3FDC07A9F2FA
:102F50000E94C025801B910B8C179D0770F2ECCF4F
:102F60008FEF9FEFEBCF0F931F93CF93DF93EB0187
:102F70008093BB0084E88093BC000E94C0258C0134
:102F80008091BC0087FF11C02091B900287F81E0AB
:102F900090E0283211F490E080E0919581959109BC
:102FA000DF91CF911F910F910895CF3FDC0741F33F
:102FB0000E94C025801B910B8C179D0708F38EEF94
:102FC0009FEFEECF0F931F93CF93DF93EC0184E835
:102FD0008093BC000E94C0258C018091BC0087FFBB
:102FE00008C08091BB0090E0DF91CF911F910F91BD
:102FF0000895CF3FDC0789F30E94C025801B910B09
:103000008C179D0750F38EEF9FEFEECF84E98093EE
:10301000BC00089590934503809344030895E09184
:103020004403F0914503309721F00190F081E02DA9
:10303000099480E00895E0914403F09145033097AE
:1030400099F020913401222359F02091C20427FFE6
:1030500007C0DC012C9111962C93119725E02C933D
:103060000280F381E02D09940895E0914403F091EA
:103070004503309739F022E0DC012C930480F58180
:10308000E02D0994089520914203309143032817BD
:10309000390771F09093430380934203E091440316
:1030A000F0914503309721F00680F781E02D0994D7
:1030B000089520914003309141032817390771F09A
:1030C0009093410380934003E0914403F0914503C2
:1030D000309721F00084F185E02D0994089585B79B
:1030E000806885BF85B7806885BF08950895089575
:1030F0000C94761808950C947A180E946F180E9408
:1031000077180C94781881E008950C9483180E9425
:10311000B7250E94960A0E9431260E94A2110E94A1
:1031200043130C947B18BF92CF92DF92EF92FF92E1
:103130000F931F93CF93DF93CDB7DEB72A970FB6C8
:10314000F894DEBF0FBECDBF0E94A70A0E9485186B
:10315000882309F463C087E4C82E83E0D82E10E0EA
:1031600000E0B02E802F0E948F0AE82EF601F19029
:103170006F01F81609F44CC08091030481FD0E9490
:10318000950A9F2D9E2580E0FF24F394292F2F215F
:10319000D1F18E83BF82EF2081E009F480E088873F
:1031A0000E94C0258160782F9A8789874E815F8130
:1031B00068858A850E946719F801E95BFC4F808168
:1031C000F826F0820E94E0110E9456130E94DC272C
:1031D0000E940F1890914603891789F10E940F18D9
:1031E000809346032A960FB6F894DEBF0FBECDBF7C
:1031F000DF91CF911F910F91FF90EF90DF90CF90D3
:10320000BF900C9434088F5FFF0C863009F0BECF5E
:103210000F5F1F4F0E30110509F0A3CF8FEF898389
:103220008A831B820E94C0258160782F9D838C83B6
:1032300049815A816B818D810E946719C3CF2A967B
:103240000FB6F894DEBF0FBECDBFDF91CF911F91B7
:103250000F91FF90EF90DF90CF90BF900895CF93A4
:10326000DF93DC018C91682F70E021E030E001C039
:10327000220F8A95EAF711964C91119750E0EA01D6
:10328000CB5ADC4F988112968C9112978823C9F003
:10329000809165038823C1F086E0849FF001859FBB
:1032A000F00D1124E60FF71FEE0FFF1FEB5CFE4F32
:1032B000408151814D935C93292B2883DF91CF91DD
:1032C0000895892F8223E6CF20952923F6CFCF9327
:1032D000DF93CDB7DEB72B970FB6F894DEBF0FBEE6
:1032E000CDBF4F83588769877A878B878A859B856F
:1032F000892B21F0CA0189238F3FE1F41E821D82B0
:1033000085E0FE013796DE01119601900D928A95B7
:10331000E1F749815A816B817C818D819E810E9478
:103320001A202B960FB6F894DEBF0FBECDBFDF91EB
:10333000CF910895CE0107960E942F19DFCFFC018F
:10334000808191810E945B2292959F70963051F40A
:10335000863F41F08091650391E089278093650362
:10336000909364030895CF93C82F882309F490C0E5
:103370008238C1F40E940F1881FD8AC089E30E943F
:1033800089220E9416232FEF81EE94E02150804085
:103390009040E1F700C0000089E30E949022CF91A5
:1033A0000C9416238338A1F40E940F1880FD70C07E
:1033B00083E50E9489220E9416232FEF81EE94E07C
:1033C000215080409040E1F700C0000083E5E5CF48
:1033D0008438A1F40E940F1882FD5AC087E40E942D
:1033E00089220E9416232FEF81EE94E02150804025
:1033F0009040E1F700C0000087E4CFCF8CEF8C0F46
:10340000813AB8F48C2F0E94432A811141C06C2F5D
:1034100080912201909123010E947B24882329F02E
:103420008C2F0E9490220E9416238C2F0E948922AA
:10343000B6CF80E28C0F883048F4C77081E001C0BD
:10344000880FCA95EAF70E94D722A9CFEBE5EC0FC7
:10345000E33040F4F0E0E458FD4F808190E0CF91FC
:103460000C944318E8E5EC0FE73150F4F0E0EE0F70
:10347000FF1FE25BFD4F80819181CF910C94591821
:10348000C03F30F08C2F0E94D626CF910C94C127DC
:10349000CF910895882309F452C0823871F40E94B4
:1034A0000F1881FF4CC089E30E9489220E941623D5
:1034B00089E30E9490220C941623833859F40E94C9
:1034C0000F1880FF3CC083E50E9489220E941623CA
:1034D00083E5EFCF843859F40E940F1882FF2FC084
:1034E00087E40E9489220E94162387E4E2CF9CEFA2
:1034F000980F913AF0F290E2980F983050F487705C
:1035000091E001C0990F8A95EAF7892F0E94DD2288
:10351000D2CF9BE5980F933020F490E080E00C949C
:10352000431898E5980F973120F490E080E00C94D0
:103530005918803F20F00E943E270C94C12708951F
:10354000CF93C82F0E94B319C93349F42FEF87EEE8
:1035500093E0215080409040E1F700C000008C2FA4
:10356000CF910C944A1A882321F00E94D7220C9400
:1035700016230895882321F00E94DD220C9416233F
:1035800008958F929F92AF92BF92CF92DF92EF9267
:10359000FF920F931F93CF93DF937C01C62F172FBA
:1035A000FC01058102950F70D281D1110E94F72292
:1035B0000E94CD22D82E8823B1F0DD2309F1812F7E
:1035C000807F803441F090E29C0F9830C8F08036C4
:1035D00011F4C63FA9F082E00E9461230E94CD222F
:1035E00091E0D82ED926C12EC2949FE0C922FBE0DB
:1035F000FC15B0F1EC2DF0E0E05FF84C0C94F231EA
:10360000D12CF1CF012F0F70812F807F11F0029507
:10361000007FDD23A9F0002359F080E28C0F883071
:1036200010F0C11109C0802F0E94D7220E941623DA
:103630008C2F0E94B31914C0802F0E94EA22F6CF6B
:103640008C2F0E944A1A002359F080E28C0F883098
:1036500010F0C11138C0802F0E94DD220E94162375
:103660002C2D2850330B2430310520F40E940F18E4
:103670000E943408DD2339F0107F103611F4C63F64
:1036800011F00E94C022DD2009F4EBC10E94A322A8
:1036900080FDE7C1F70112820E949D220E9426212F
:1036A000C7010E94551D0E949D22DF91CF911F915D
:1036B0000F91FF90EF90DF90CF90BF90AF909F90D1
:1036C0008F900C944721802F0E94F022C7CF212F8A
:1036D0002F70B22E812F807F803219F0B29480EF4C
:1036E000B822CC2339F0C13019F1DD2359F1002380
:1036F00021F19ECFDD2381F0011106C00E94FD2241
:103700008B290E94B31AACCF0130C1F70E94FD2271
:103710008B290E940323A4CF011106C00E940C2311
:103720008B2D0E94BA1A9CCF013009F499CFF6CFA5
:10373000DD2329F0023008F093CF8B2DE2CF011169
:103740008FCFEECF002361F3C93349F43FEF87EE0B
:1037500093E0315080409040E1F700C000008C2F92
:103760000E944A1A7DCF812F86958695837069F0D5
:10377000813009F075CF8C2F912F9370D11102C039
:1037800090E080E00E9459186BCF8C2F912F93709E
:10379000D11102C090E080E00E94431861CF8C2FCD
:1037A000DD2329F00E94D6260E94C12759CF0E940E
:1037B0003E27FACF812F837009F043C0D11150CF3B
:1037C0002C2F229526952770220F220F6C2F6F70B9
:1037D000862E912CB12CA12C022E04C0880C991C91
:1037E000AA1CBB1C0A94D2F760E070E0CB01C4FFB6
:1037F0000FC06FE070E080E090E004C0660F771FBC
:10380000881F991F2A95D2F760957095809590959D
:10381000212F269526952370682979298A299B29A5
:10382000223049F058F4213019F00E94D82018CFE6
:103830000E94C62015CF0E94EA2012CF0E94C42009
:103840000FCF8695DD2311F0812F8170882309F435
:1038500007CF2C2F229526952770220F220F6C2F31
:103860006F70862E912CB12CA12C022E04C0880CD6
:10387000991CAA1CBB1C0A94D2F760E070E0CB0133
:10388000C4FF0FC06FE070E080E090E004C0660FFE
:10389000771F881F991F2A95D2F76095709580959C
:1038A0009095212F269526952370682979298A29B4
:1038B0009B29223049F058F4213019F00E949D21B3
:1038C000CFCE0E948B21CCCE0E94AF21C9CE0E94C8
:1038D0000021C6CE012F0F70DD2329F0802F0E941A
:1038E00026218C2F0ECF8C2F0E94BA1A802F0E9477
:1038F0004721B6CEC23F89F160F4C03FD1F0C13F4D
:1039000029F1DD2309F442C0011192CE812F8F717C
:1039100021C0C33F39F1C43FA1F7DD2369F1012F75
:103920000F71802F0E94262163E0802F0E944C237C
:1039300097CEDD2339F0011193CE812F8F710E9434
:103940006A218ECE023008F08BCEF7CF812F8F7197
:10395000DD2369F20E94262183CE812F8F71DD2322
:10396000C9F3C5CFDD2329F0812F8F710E9411216A
:1039700077CE0E940C2174CE81E00E946123023038
:1039800008F46ECE82E00E9461236ACE002359F0D3
:10399000C93309F0E4CEEFEFF7EE23E0E150F04059
:1039A0002040E1F7DACE812F8F71A1CFE0E1EC0F5B
:1039B000E73090F5F0E0E45EF84C0C94F231DD2352
:1039C00009F44ECE8091650391E0892780936503C9
:1039D00047CED093650344CE81E08D27F7CFD11138
:1039E0003FCE81E0F3CFD1113BCE1092650338CEAC
:1039F000DD2319F00E94A72233CE0E94B32230CEDD
:103A0000DD2339F0809164038823E1F2109264038E
:103A100027CE0023B9F224CE809164030023A9F0BD
:103A2000882341F08091650391E0892780936503A5
:103A3000109264038C2FD111FCCD0E944A1A86E0AB
:103A4000F70111928A95E9F70BCE882309F408CE85
:103A5000D11106CE8091650391E08927809365039B
:103A6000D5CFDF91CF911F910F91FF90EF90DF9015
:103A7000CF90BF90AF909F908F9008950F931F931A
:103A8000CF93DF93EC01688179818A810E9465225E
:103A90008C010E94C1210E94C320B801CE01DF9198
:103AA000CF911F910F910C94C11ACF93DF93EC012A
:103AB0008B819C81892B29F08881998189238F3F73
:103AC00059F4DF91CF910895CE010E943E1DCE01A1
:103AD000DF91CF910C945107CE010E944C088111C7
:103AE000F3CF0E94CD22882361F38A81882349F392
:103AF00082E0DF91CF910C946123882321F00E9412
:103B0000EA220C9416230895882321F00E94F022C3
:103B10000C94162308950E94F7220E94FA220E9414
:103B200016230E94E8280E94C12790E080E00E94AE
:103B3000431890E080E00C9459180E9497220C944E
:103B40008B1D0E94E7220C949D1DE92FE295EF70DA
:103B5000E250EE3070F4F0E0ED5DF84C0C94F23190
:103B6000803F19F020F4883E20F481E00895843FDE
:103B7000E1F380E00895883EC0F3813FD1F7F5CFAF
:103B800093FB882780F908950E945B220C94A51D61
:103B9000CF93DF9300D000D00F92CDB7DEB70F9058
:103BA0000F900F900F900F90DF91CF910895CF93CA
:103BB000DF9300D000D000D0CDB7DEB726960FB689
:103BC000F894DEBF0FBECDBFDF91CF9108951F9354
:103BD000CF93DF93C091660316E0809167038C1347
:103BE00004C0DF91CF911F910895D0E01C9FF00198
:103BF0001D9FF00D1124E859FC4F408151816281D5
:103C00007381848195810E94D71D2196C770E5CF6D
:103C1000409198035091990360919A0370919B038E
:103C200080919C0390919D030C94D71D1F93CF937B
:103C3000DF9380919D03807FA9F480919A0388236C
:103C400089F080916603C091670360919803709139
:103C50009903A0919B03B0919C03D62FD72316E024
:103C6000C81304C0DF91CF911F91089590E0109781
:103C700011F0DF3F19F401968770F2CF189F900181
:103C8000199F300D1124F901E859FC4F4181471368
:103C9000F2CF40814613EFCF42814111ECCF4381F7
:103CA00054814A1B5B0B483C510528F780919D03CA
:103CB0008F70806180939D03F901E359FC4F8081EF
:103CC0008F708061808388E993E00E94551DDF91A9
:103CD000CF911F910C94E71DAF92BF92CF92DF92CC
:103CE000EF92FF920F931F93CF93DF93CDB7DEB781
:103CF00061970FB6F894DEBF0FBECDBF8C0185E093
:103D0000F801DE011D9601900D928A95E1F7F80108
:103D100040815181E28088E9C82E83E0D82E6091ED
:103D20009B0370919C036115710509F461C1909129
:103D3000980320919903892F82238F3F09F458C15A
:103D4000A380B480F0909A03F501E61BF70BFF20E7
:103D500009F4FCC080919D03382F307FE83CF105C9
:103D600008F0B2C0311179C0FE2C251323C0941382
:103D700021C0E1101FC08F70806180939D030E945D
:103D8000081EC6010E94551D80919D03F801858380
:103D90008F2D61960FB6F894DEBF0FBECDBFDF91B9
:103DA000CF911F910F91FF90EF90DF90CF90BF9038
:103DB000AF900895AB2829F0842F85238F3F09F019
:103DC00033C180E0F82FF170DF2E80FF3CC080917E
:103DD00066032091670336E0821315C04D875E8726
:103DE0008D859E850E945B22292F22952F7022307F
:103DF000F0F0243018F59F70F1F0F8019581907F74
:103E0000D1F4D12C1EC090E0389FF001399FF00D05
:103E10001124E859FC4F6181651306C06081641369
:103E200003C062816E110FC001968770D5CF9F705D
:103E300011F0882331F3805E883018F3C8010E94A6
:103E4000551DFD2CA5CFEE2009F4A2CF80919D0336
:103E5000816080939D03F12C9BCF251306C09413A2
:103E600004C0F801EE2009F48DC04D875E878D8572
:103E70009E850E94C41D882319F1EE2009F18091CE
:103E80009D03803270F02091980330919903388718
:103E90002F831986BB86AA868C87CE0107960E943F
:103EA000551D86E0F801A8E9B3E001900D928A95CE
:103EB000E1F70E94161E0E94081EFF24F39468CFAB
:103EC000C8010E94551DF9CF311113C07A2DB98A4E
:103ED000A88A6E2D89890E94C81D88E993E00E94F6
:103EE000551D86E0F60111928A95E9F70E94081E99
:103EF000B2CF25130FC094130DC0E1100BC0F80111
:103F00008583C8010E94551D86E0F60111928A95AD
:103F1000E9F73ECF4D875E878D859E850E94C41D43
:103F2000882371F2EE2061F280919D03803208F4C3
:103F3000B8CF20919803309199033A8329831B824B
:103F4000BD82AC828E83CE010196A9CFE83CF105FB
:103F500008F041C0FE2CEE2009F4B2CF25132AC090
:103F6000941328C080919D0380FD1BC0982F907FE3
:103F7000C1F0F8018583903F31F0982F907F905FDA
:103F80008F70892B8583C8010E94551D86E0F8013A
:103F9000A8E9B3E001900D928A95E1F70E94081E0E
:103FA000F7CE86E0F801A8E9B3E001900D928A957A
:103FB000E1F7EECE4D875E878D859E850E94C41DFC
:103FC00081116FCF80919D03816080939D03C80113
:103FD0000E94551DDDCE7A2DB98AA88A6E2D898959
:103FE0000E94C81D86E0F60111928A95E9F7D6CFA6
:103FF000EE2009F465CF4D875E878D859E850E94F2
:10400000C41DF82E882309F45BCF86E0F801A8E9E7
:10401000B3E001900D928A95E1F788E993E00E9460
:104020009F190E94161EBACF81E08E25CBCE88EC58
:1040300090E008951F93CF93DF93CDB7DEB72C9711
:104040000FB6F894DEBF0FBECDBF4F835887698788
:104050007A878B879C87CE0107960E946C1E8823E7
:1040600069F08A859B85892B39F04F815885842F8B
:1040700085238F3F09F071C016E05FC086E0FE0126
:104080003796DE01119601900D928A95E1F78A85A7
:104090009B85892B89F38F81988589238F3F61F3D5
:1040A0002091670330E0C9010196877099274091FC
:1040B00066034817190671F40E94A11D1092670348
:1040C0001092660386E0E8E9F3E0DF011D928A952D
:1040D000E9F7D2CF96E0929FD001939FB00D1124C3
:1040E000A859BC4FFE01319601900D929A95E1F7C7
:1040F000809367030E94E71DBFCF819FC0011124F9
:1041000088599C4F0E946C1E8823E9F0E091660359
:104110001E9FF0011124E859FC4F408151816281BA
:104120007381848195810E94D71D8091660390E000
:10413000019687709927809366038091660390911A
:1041400067038913DACF2C960FB6F894DEBF0FBE43
:10415000CDBFDF91CF911F91089569857A858B85B9
:104160009C850E94D71D88CF08950C94B4200E948E
:10417000B5206093D9037093DA038093DB039093A7
:10418000DC030C948B1D08950C94B7200F931F93A0
:104190000091D9031091DA032091DB033091DC0305
:1041A000602B712B822B932B1F910F910C94B720B6
:1041B0000F931F930091D9031091DA032091DB0331
:1041C0003091DC0360237123822393231F910F918D
:1041D0000C94B7200F931F930091D9031091DA0329
:1041E0002091DB033091DC0360277127822793271E
:1041F0001F910F910C94B7200C94B4200C94FC20C8
:104200000E94FE206093D5037093D6038093D7035A
:104210009093D8030C948B1D60E070E0CB010C945C
:1042200000210F931F9341E050E060E070E08A01AD
:104230009B0104C0000F111F221F331F8A95D2F764
:10424000C901B8011F910F910C9400210F931F9386
:1042500041E050E060E070E004C0440F551F661F6D
:10426000771F8A95D2F78091D5039091D603A091BC
:10427000D703B091D8038A019B01082B192B2A2B55
:104280003B2BC901B8011F910F910C9400210F9392
:104290001F9341E050E060E070E004C0440F551F00
:1042A000661F771F8A95D2F7CB01BA01609570958A
:1042B000809590950091D5031091D6032091D70356
:1042C0003091D80360237123822393231F910F9190
:1042D0000C9400210F931F9341E050E060E070E0E8
:1042E00004C0440F551F661F771F8A95D2F780912F
:1042F000D5039091D603A091D703B091D8038A013A
:104300009B01082719272A273B27C901B8011F91BC
:104310000F910C9400210F931F930091D5031091DE
:10432000D6032091D7033091D803602B712B822BB9
:10433000932B1F910F910C9400210F931F930091C9
:10434000D5031091D6032091D7033091D803602371
:104350007123822393231F910F910C9400210F93BB
:104360001F930091D5031091D6032091D70330916C
:10437000D80360277127822793271F910F910C94F0
:1043800000210895E92FEE0FE90FEE0F8E0F982F01
:10439000977041E001C0440F9A95EAF7869586959B
:1043A000869595E0899FF0011124E256FC4F30E09C
:1043B00020E070E05191DF011197CB01022E02C085
:1043C000969587950A94E2F78170819585278423D5
:1043D00085278C932F5F3F4F2530310559F708957E
:1043E000E92FEE0FE90FEE0F8E0F982F977086953D
:1043F0008695869525E0829FF0011124E256FC4FB8
:1044000050E040E080E0219130E0092E02C0369576
:1044100027950A94E2F721703327042E01C0220F5A
:104420000A94EAF7822B4F5F5F4F4530510559F7E9
:104430000895BF92CF92DF92EF92FF920F931F9356
:10444000CF93DF938C01C090D503D090D603E0903A
:10445000D703F090D8038091D9039091DA03A0910B
:10446000DB03B091DC03C82AD92AEA2AFB2ACFE170
:10447000D0E0BC2ED701C6010C2E04C0B695A7957E
:10448000979587950A94D2F780FD0EC0219788F7FB
:10449000B12C8B2DDF91CF911F910F91FF90EF9059
:1044A000DF90CF90BF900895B8018C2F0E94AE0886
:1044B000019761F3EECFCF93DF93EC010E941922B5
:1044C000BE01DF91CF910C94AE081F93CF93DF9381
:1044D000EB0190916303992331F0CB01DF91CF91F0
:1044E0001F910C945B22882379F0CB010E94192242
:1044F000182F682FCE010E94C221BE01812FDF91AB
:10450000CF911F910C94AE08CB010E94F021182F7F
:10451000F4CF682F80912201909123010C94FB2409
:10452000682F80912201909123010C94062580919F
:104530002201909123010C9411258091DE03859531
:104540008595859508958091DE038770089582E0B2
:104550008093DD0381E08093650308951092DD036D
:104560001092650308958091DD03823021F481E08B
:104570008093DD030895833011F40C94AE220895E6
:104580008091DD03823021F483E08093DD03089580
:10459000813011F40C94AE2208959091DE0397704F
:1045A00081E009F480E008958091020408959091DB
:1045B0000204892B8093020408958095909102044F
:1045C0009823909302040895809302040895109212
:1045D0000204089590910104892B809301040895A9
:1045E000809590910104982390930104089510926E
:1045F000010408951092000408958091DF03089546
:1046000008950C9400239091DF03981721F0809374
:10461000DF030C94012308958091DF03882329F0A0
:104620001092DF0380E00C9401230895E0912201B1
:10463000F0912301809102048083E0912201F091A6
:104640002301808190910104892B8083E0912201D4
:10465000F0912301808190910004892B80839091B7
:10466000DF03992381F0E0912201F0912301808101
:10467000892B808380912201909123010E946724DD
:1046800081110E940C2380912201909123010C94AE
:104690001B1808950C94492398E0899F90011124D8
:1046A000622B6093DE030E9426218091DE038595B4
:1046B000859585950C944A231092DE0380E00C9436
:1046C0004A239091DE03809589238093DE03282F6F
:1046D000277071F4282F082E000C330B9217130645
:1046E00039F08595859585950E9447210C945C232A
:1046F0000895CF92DF92EF92FF926C01EE24FF2497
:1047000020E0C114D104E104F10419F0C701B6019D
:1047100020E1C72ED82EE92EFF24C114D104E104D4
:10472000F10419F0285FC701B6016B017C0154E068
:10473000F694E794D794C7945A95D1F7C114D1044D
:10474000E104F10419F02C5FC701B6016B017C0193
:1047500042E0F694E794D794C7944A95D1F7C114F0
:10476000D104E104F10419F02E5FC701B60196955A
:10477000879577956795672B682B692B09F02F5FD5
:10478000822FFF90EF90DF90CF90089590E080E02F
:104790000E946A3621E08C3E9E4F09F020E0822F75
:1047A000089582E090E00C945C3683E090E00C94F5
:1047B0005C36CF9384E090E00E945C36C82F81E2A3
:1047C00090E00E945C36982F8C2FCF910895CF9364
:1047D000C92F682F84E090E00E9470366C2F81E230
:1047E00090E0CF910C9470368FE090E00C9464369A
:1047F000AB01BC018FE090E00C948236AB01BC01B0
:1048000083E190E00C94823660E070E0CB010C9480
:10481000FE236CEE7EEF90E080E00E948E3660E03A
:1048200082E090E00E94703660E083E090E00E94B9
:1048300070361092D9031092DA031092DB031092B3
:10484000DC0360E084E090E00E94703660E081E28A
:1048500090E00E94703660E085E090E00E94703643
:1048600060E086E090E00E9470366FEF87E090E0B5
:104870000E94703640E050E0BA0188E090E00E946B
:10488000823660E08DE090E00E94703640E050E0BB
:10489000BA0188E190E00E94823660E087E190E012
:1048A0000E94703640E050E0BA018CE190E00E9436
:1048B000823660E080E290E00E9470360C944906F7
:1048C0000C940924682F8EE090E00C947036FC0163
:1048D000329680913401882321F08091C2049EE1B8
:1048E00087FF96E080E0915008F4089521912223FB
:1048F000D1F38F5FF8CF662301F120913401222399
:10490000F1F02091C20427FF1AC0462F4695469524
:1049100046954E3190F4677021E030E002C0220FDE
:10492000331F6A95E2F7840F911DFC01828190E0AC
:104930002823392381E0232B69F480E00895FC01CA
:10494000329608962191261721F0E817F907D1F73A
:10495000F4CF81E008959C01FC0132969FEF80E046
:104960004191461751F09F3F19F4411101C0982F12
:104970008F5F8630A9F79F3F09F40895290F311DF5
:1049800097FD3A95F90162830895FC0132960896E5
:104990002191261303C0DF0111971C92E817F90734
:1049A000B9F70895E62FE695E695E695EE3168F4B9
:1049B000E80FF92FF11D677021E030E001C0220FF0
:1049C0006A95EAF78281822B82830895E62FE69525
:1049D000E695E695EE3170F4E80FF92FF11D67705A
:1049E00021E030E001C0220F6A95EAF7209582812C
:1049F00028232283089520913401222329F0209135
:104A0000C20427FD0C94D2240C94AB2420913401D1
:104A1000222329F02091C20427FD0C94E6240C9453
:104A2000C524FC01329680913401882351F0809195
:104A3000C20487FF06C08EE1DF011D928A95E9F767
:104A4000089586E0F9CF08950C9423250E9424252B
:104A50008091C804843009F439C01092040488E1BC
:104A600090E020E40FB6F894A895809360000FBE04
:104A70002093600080E00E9434080E94DD11809144
:104A8000050481110AC081E08093050480915A04D5
:104A90008170809306040E9410110E94242583B720
:104AA000817F846083BF83B7816083BF789488955A
:104AB00083B78E7F83BF0FB6F894A895809160006E
:104AC000886180936000109260000FBE0895089581
:104AD000CF930E94F1040E94A70A0E946725C0E0BC
:104AE0008C2F0E948F0A811105C0CF5FCE30C1F795
:104AF000CF91089581E0FCCF08950C947C250E940D
:104B0000A11D0E940F180E94340810920504809184
:104B1000060481110E94D5110E9422110C947D255A
:104B20001F921FB61F9211248F939F93AF93BF9331
:104B300080910404811113C08091BE049091BF0440
:104B4000A091C004B091C1044196A11DB11D8093F4
:104B5000BE049093BF04A093C004B093C104BF915E
:104B6000AF919F918F911F901FBE1F90189582E06B
:104B700084BD93E095BD9AEF97BD80936E00089534
:104B80002FB7F8948091BE049091BF04A091C00407
:104B9000B091C1042FBF08959C014FB7F894809144
:104BA000BE049091BF04A091C004B091C1044FBF56
:104BB000821B930B089578941F921FB61F921124A5
:104BC0008F939F93AF93BF938091BE049091BF0446
:104BD000A091C004B091C1040196A11DB11D8093A4
:104BE000BE049093BF04A093C004B093C104BF91CE
:104BF000AF919F918F911F901FBE1F901895F894B1
:104C000081E08093E00080E28093D800E9ECF0E05E
:104C100010828FE19EE40197F1F700C000001DBAF9
:104C2000109268001CBC10BE1FBA10927A0010923D
:104C30006E0010926F00109271001092720010823C
:104C4000ECEBF0E0108214B817B81AB81DB810BA1F
:104C5000108215B818B81BB81EB811BA0C94003FD2
:104C600008950E94C623811102C00E9460240E9400
:104C7000D123809303040E94D9239093C30480938B
:104C8000C2040E94D523682F70E090E080E00E946B
:104C9000C4206091D5037091D6038091D703909181
:104CA000D8030C94FE2080910F0480FF12C0609105
:104CB000280185E0689FB001112475956795759569
:104CC000679560387105A8F561157105A1F1862F0A
:104CD000089581FF09C06091280185E0689FB001B7
:104CE000112475956795EDCF6091280182FD0AC06A
:104CF00080910E048823D1F09091270160912801C2
:104D0000891728F085E0689FB0011124DACF869FCB
:104D1000B001112485E0869F9001879F300D1124FA
:104D2000692F70E0C9010E94BC31CBCF65E070E013
:104D3000CECF8FE7089581E0089580910F0480FF22
:104D40000CC06091250170E0759567957595679524
:104D50006115710549F1862F089581FF06C06091A4
:104D6000250170E075956795F3CF6091250182FD6F
:104D70000BC090910D049923A1F0609124018091C2
:104D80002501961738F0682F70E06038710500F340
:104D90008FE70895899FC001112470E00E94BC3103
:104DA000F4CF61E070E0D7CF81E00895803F31F427
:104DB0000E9453268195809313040895813F19F42E
:104DC0000E945326F8CF823F31F40E9453268195EA
:104DD000809312040895833F19F40E945326F8CF5C
:104DE000893F29F40E949D268093140408958A3FE8
:104DF00021F40E949D268195F7CF8B3F31F40E94CC
:104E00009D2681958093150408958C3F19F40E9486
:104E10009D26F8CF843F31F4809111048160809306
:104E200011040895853F21F4809111048260F7CF29
:104E3000863F21F4809111048460F1CF873F21F4F3
:104E4000809111048860EBCF883F21F48091110498
:104E50008061E5CF8D3F31F480910F0481608093B4
:104E60000F0408958E3F21F480910F048260F7CFE4
:104E70008F3FB9F780910F048460F1CF90911204B5
:104E8000803F59F48091130487FF0DC010921304E2
:104E900091110BC010920E0408C0813F81F48091E3
:104EA000130418169CF3992381F0809114049091B7
:104EB0001504892B09F064C010920D040895823FF7
:104EC00049F497FFF0CF10921204809113048111DE
:104ED000ECCFE0CF833F19F41916ACF3E4CF209167
:104EE0001404893F29F41216F4F610921404DBCF4F
:104EF0008A3F19F427FFD7CFF8CF209115048B3FB5
:104F000029F427FFD0CF10921504CDCF8C3F19F490
:104F10001216CCF3C8CF843F31F4809111048E7FF8
:104F200080931104C0CF853F21F4809111048D7FBF
:104F3000F7CF863F21F4809111048B7FF1CF873F1B
:104F400021F480911104877FEBCF883F21F4809179
:104F500011048F7EE5CF8D3F31F480910F048E7F59
:104F600080930F04A0CF8E3F21F480910F048D7F9A
:104F7000F7CF8F3F09F097CF80910F048B7FF0CF51
:104F800008950E94C0259C01909112048091130401
:104F9000982B21F030930C0420930B04909114046F
:104FA00080911504982B21F030930A042093090472
:104FB00080E194E00C943518EF92FF920F931F93C9
:104FC000CF93DF9300D000D000D0CDB7DEB786E01E
:104FD000E0E1F4E0DE01119601900D928A95E1F78F
:104FE000E0901204F0901304009114041091150441
:104FF00010921204109213041092140410921504CB
:105000008E2D8F2991F080910B0490910C040E94B9
:10501000CC25AC0190910E04992309F43FC08091F6
:1050200029018417150608F447C0802F812B91F0C1
:105030008091090490910A040E94CC25AC019091C2
:105040000D04992309F477C0809126018417150671
:1050500008F47FC08091120490911304892B9091E1
:105060001404892B90911504892B11F00E94C127FB
:1050700086E0FE013196A0E1B4E001900D928A95A0
:10508000E1F726960FB6F894DEBF0FBECDBFDF91D5
:10509000CF911F910F91FF90EF90089520910804F8
:1050A0008AE0289F900111242417350708F0BDCF0E
:1050B0009F5F90930E0402C09F3FD1F7EE2059F0FE
:1050C0000E9453269FEF1E140CF491E0899F802DBF
:1050D000112480931204FF2059F00E9453269FEF61
:1050E0001F140CF491E0899F802D112480931304E8
:1050F00030911204332309F498CF20911304222312
:1051000009F493CF45EB3403C0011124992359F0DE
:105110009093120445EB240390011124332339F0BA
:105120003093130482CF81E080931204F3CF81E0A7
:10513000809313047ACF209107048AE0289F90017E
:1051400011242417350708F085CF9F5F90930D0435
:1051500002C09F3FD1F7002359F00E949D269FEF88
:1051600010160CF491E0899F802D11248093140473
:10517000112359F00E949D269FEF11160CF491E027
:10518000899F802D112480931504309114043323BA
:1051900009F460CF20911504222309F45BCF45EB7D
:1051A0003403C0011124992359F09093140445EB62
:1051B000240390011124332339F0309315044ACF8E
:1051C00081E080931404F3CF81E08093150442CFF3
:1051D00086E0E0E1F4E0DF011D928A95E9F71092A4
:1051E0000E0410920D0410920F040895833081F183
:1051F00028F4813059F08230D1F00895853009F4D7
:1052000049C0B8F1863009F456C008958091080469
:10521000482F460F5527551F4F3F510524F4680F5F
:105220006093080408958FEF809308040895809197
:105230002901482F460F5527551F4F3F510524F48C
:10524000680F6093290108958FEF809329010895D5
:1052500080912801482F460F5527551F4F3F510574
:1052600024F4680F6093280108958FEF809328013C
:10527000089580912701482F460F5527551F4F3F0E
:10528000510524F4680F6093270108958FEF8093F0
:105290002701089580912501482F460F5527551F56
:1052A0004F3F510524F4680F6093250108958FEF57
:1052B00080932501089580912401482F460F55279A
:1052C000551F4F3F510524F4680F60932401089542
:1052D0008FEF809324010895833011F128F48130F9
:1052E00049F0823091F00895853081F120F18630C7
:1052F000C1F1089580910804681720F4861B8093FB
:1053000008040895109208040895809129016817EF
:1053100020F4861B80932901089510922901089595
:1053200080912801681720F4861B80932801089536
:1053300010922801089580912701681720F4861B98
:1053400080932701089510922701089580912501E7
:10535000681720F4861B809325010895109225017B
:10536000089580912401681720F4861B80932401FE
:1053700008951092240108950F931F9341E050E087
:1053800060E070E08A019B0104C0000F111F221F22
:10539000331F8A95D2F7C901B8010E94C4201F911A
:1053A0000F910C94A11DEBEFE80FEF3308F05AC0FA
:1053B000F0E0EF5CF84C0C94F2310E94602481E044
:1053C000089580910304807F8093030481E080939B
:1053D000170408950E943D08F2CF90910304892F8D
:1053E0008E7F90FF81608093030480FDE8CF817FF2
:1053F00080930304E4CF90910304892F8D7F91FF64
:1054000082608093030481FFDACF8091030481607E
:10541000EFCF90910304892F8B7F92FF846080935C
:10542000030482FDF2CFCBCF90910304892F877FB5
:1054300093FF88608093030483FDE7CFC0CF0E9471
:10544000A11D9091C204892F97FB87F98058809302
:10545000C204B5CF80E00E94BC29B1CF8953FBCFF5
:105460008D51F9CF80E0089580E008950C94342A9E
:105470008E518A3030F4E82FF0E0E158FD4F808102
:10548000089580E00895CF93C82F8091170481304C
:10549000E1F0882329F08230E9F11092170413C05B
:1054A0000E94D422813159F48C2F0E94342A811118
:1054B00025C08C2F0E94D3298170CF9108950E941E
:1054C000D422823289F380E0F8CF0E94D422813145
:1054D00059F30E94D422823239F38C2F0E94362A4B
:1054E00081110AC0C43199F060F4CB3029F0C03189
:1054F00019F782E08093170481E0DECF81E090E02D
:10550000DBCFC93221F0C833B9F380E0D5CF109298
:105510001704FBCFC93219F188F4C43101F120F42A
:10552000C73081F181E0C9CF82EE8C0F8630D0F791
:105530008C2F0E94382A80931604F4CFCE3401F1C8
:1055400040F46AE0CB3471F7809116040E94F6288B
:10555000E9CFC13579F061E0C235B1F3E3CF809195
:105560001604882319F010921604DCCF81E0809392
:105570001704A3CF61E0809116040E946C29D2CF5A
:105580006AE0F9CF1092080484E180932901C09366
:1055900028018CE38093270188E08093250188E22D
:1055A00080932401BFCF809138040895CF93DF9377
:1055B00000D00F92CDB7DEB79091C804943019F5A2
:1055C00089837B836A8382E08093E9008FEF9091E7
:1055D000E800815095FD06C095ED9A95F1F7000021
:1055E0008111F5CF8091E80085FF0DC050E040E0CB
:1055F00063E070E0CE0101960E94FD2C8091E800EE
:105600008E778093E8000F900F900F90DF91CF91ED
:105610000895BC0184E00C94D62ABC0183E00C946C
:10562000D62A9C0182E08093E9009FEF8091E800F8
:10563000915085FD06C085ED8A95F1F70000911126
:10564000F5CF8091E80085FF0CC050E040E066E0B7
:1056500070E0C9010E94FD2C8091E8008E77809354
:10566000E8000895CF93DF93EC0180913401882303
:10567000B1F18091C20487FF32C060E282E0809382
:10568000E9008FEF9091E800815095FD06C095EDFF
:105690009A95F1F700008111F5CF8091E80085FF20
:1056A0001BC08091340170E050E040E0811104C0E3
:1056B00050E040E068E070E0CE010E94FD2C809157
:1056C000E8008E778093E80080E2FE01A8E1B4E074
:1056D00001900D928A95E1F7DF91CF91089568E0EE
:1056E00081E0CDCF8091C704811109C00E948D2E29
:1056F0000E94EA2E8091E20084608093E200089587
:105700001092C7040895089508950C947F2542E0EF
:1057100061EC81E00E94092E42E261EC82E00C948F
:10572000092E8091CA04833009F45FC030F48130BF
:10573000C1F1823009F49BC008958A3009F487C012
:105740008B3009F46DC0893009F04EC08091C904D6
:10575000813209F049C08091CD049091CE04029726
:1057600008F042C08091E800877F8093E800809134
:10577000E80082FF35C09091F3008091F20002971B
:1057800029F48091F1008B7F813021F48091F10028
:10579000809338048091E8008B778093E8000C9424
:1057A0003D2E8091C904813AF9F48091E800877F09
:1057B0008093E8008091CD049091CE04892B61F410
:1057C00060E288E194E070E00E944C2D8091E80056
:1057D0008B778093E800089560E090E080E0F3CF5D
:1057E0008091C8048111C3CF08958091C904813A82
:1057F000D9F78091CD049091CE04892BA9F780919F
:10580000E800877F8093E8008091E80080FFFCCF6C
:10581000809134018093F1008091E8008E77BDCFB4
:105820008091C904813201F78091CD049091CE041A
:10583000892BD1F68091E800877F8093E8000E9451
:105840003D2E8091CB04809334010C94A11D809156
:10585000C904813249F68091E800877F8093E8008F
:105860000E943D2E8091CC0480933904089580914C
:10587000C904813A09F0B8CF8091E800877F80930E
:10588000E8008091E80080FFFCCF80913904C2CF0E
:1058900084B7877F84BF0FB6F894A8958091600085
:1058A000886180936000109260000FBE80E890E0F5
:1058B0000FB6F89480936100909361000FBE0E9430
:1058C0007D180E948D2E0E94EA2E8091E200846055
:1058D0008093E20078940E9473310E9487188AE2D4
:1058E00091E00E940A188091C804853019F00E9446
:1058F0009318F9CF0E9426258091C604882399F336
:105900000E946825882379F30E94E72CECCF0C9441
:10591000892C292F33272330310519F168F42130E0
:10592000310509F44AC02230310509F44BC090E03A
:1059300080E030E020E028C02132310579F12232C8
:105940003105A9F780E490E02BE537E0611571059A
:10595000D9F08CEB90E02FE936E061307105A1F0D1
:10596000E6CF99278130910599F0009741F0823078
:10597000910589F00397D9F6E6E0F6E002C0EEE47F
:10598000F6E0849190E09F01FA013183208308952D
:10599000E4E2F6E0F6CFECE0F6E0F3CF89E090E069
:1059A00024E636E06115710579F389E090E02DE792
:1059B00036E06130710541F3BACF82E190E02DE825
:1059C00036E0E2CF8BE390E022E536E0DDCF80E108
:1059D00089BD82E189BD09B400FEFDCF8091D80068
:1059E0008F7D8093D8008091E00082608093E000FA
:1059F0008091E00081FDFCCF0895AF92BF92CF92DD
:105A0000DF92FF920F931F93CF93DF936C01EB0113
:105A10008A010E945C2EF82E811123C00115110508
:105A200039F0F80180819181C81BD90BC80ED91EAD
:105A3000B12CA12C2097A9F08091E80085FD22C00F
:105A40008091E8008E778093E80001151105A1F0A0
:105A5000F80180819181A80EB91EB182A08285E0F3
:105A6000F82E8F2DDF91CF911F910F91FF90DF9036
:105A7000CF90BF90AF9008950E945C2E8823D1F202
:105A8000F82EEFCFF60181916F018093F1002197FD
:105A9000FFEFAF1ABF0ACECFFC018091CF049091E7
:105AA000D00486179707A0F06115710529F490912D
:105AB000E8009E779093E80090E06115710551F43D
:105AC000911108C08091E80082FF34C080E0089501
:105AD000BC01F2CF8091C8048823C1F18530C1F1A7
